{
	"contracts/proxy.sol": {
		"OwnedUpgradeabilityProxy": {
			"abi": [
				{
					"inputs": [],
					"stateMutability": "nonpayable",
					"type": "constructor"
				},
				{
					"anonymous": false,
					"inputs": [
						{
							"indexed": false,
							"internalType": "address",
							"name": "previousOwner",
							"type": "address"
						},
						{
							"indexed": false,
							"internalType": "address",
							"name": "newOwner",
							"type": "address"
						}
					],
					"name": "ProxyOwnershipTransferred",
					"type": "event"
				},
				{
					"anonymous": false,
					"inputs": [
						{
							"indexed": true,
							"internalType": "address",
							"name": "implementation",
							"type": "address"
						}
					],
					"name": "Upgraded",
					"type": "event"
				},
				{
					"stateMutability": "payable",
					"type": "fallback"
				},
				{
					"inputs": [],
					"name": "implementation",
					"outputs": [
						{
							"internalType": "address",
							"name": "impl",
							"type": "address"
						}
					],
					"stateMutability": "view",
					"type": "function"
				},
				{
					"inputs": [],
					"name": "maintenance",
					"outputs": [
						{
							"internalType": "bool",
							"name": "_maintenance",
							"type": "bool"
						}
					],
					"stateMutability": "view",
					"type": "function"
				},
				{
					"inputs": [],
					"name": "proxyOwner",
					"outputs": [
						{
							"internalType": "address",
							"name": "owner",
							"type": "address"
						}
					],
					"stateMutability": "view",
					"type": "function"
				},
				{
					"inputs": [
						{
							"internalType": "bool",
							"name": "_maintenance",
							"type": "bool"
						}
					],
					"name": "setMaintenance",
					"outputs": [],
					"stateMutability": "nonpayable",
					"type": "function"
				},
				{
					"inputs": [
						{
							"internalType": "address",
							"name": "newOwner",
							"type": "address"
						}
					],
					"name": "transferProxyOwnership",
					"outputs": [],
					"stateMutability": "nonpayable",
					"type": "function"
				},
				{
					"inputs": [
						{
							"internalType": "address",
							"name": "newImplementation",
							"type": "address"
						}
					],
					"name": "upgradeTo",
					"outputs": [],
					"stateMutability": "nonpayable",
					"type": "function"
				},
				{
					"inputs": [
						{
							"internalType": "address",
							"name": "newImplementation",
							"type": "address"
						},
						{
							"internalType": "bytes",
							"name": "data",
							"type": "bytes"
						}
					],
					"name": "upgradeToAndCall",
					"outputs": [],
					"stateMutability": "payable",
					"type": "function"
				},
				{
					"stateMutability": "payable",
					"type": "receive"
				}
			],
			"devdoc": {
				"details": "This contract combines an upgradeability proxy with basic authorization control functionalities",
				"events": {
					"ProxyOwnershipTransferred(address,address)": {
						"details": "Event to show ownership has been transferred",
						"params": {
							"newOwner": "representing the address of the new owner",
							"previousOwner": "representing the address of the previous owner"
						}
					},
					"Upgraded(address)": {
						"details": "This event will be emitted every time the implementation gets upgraded",
						"params": {
							"implementation": "representing the address of the upgraded implementation"
						}
					}
				},
				"kind": "dev",
				"methods": {
					"constructor": {
						"details": "the constructor sets the original owner of the contract to the sender account."
					},
					"implementation()": {
						"details": "Tells the address of the current implementation",
						"returns": {
							"impl": "address of the current implementation"
						}
					},
					"maintenance()": {
						"details": "Tells if contract is on maintenance",
						"returns": {
							"_maintenance": "if contract is on maintenance"
						}
					},
					"proxyOwner()": {
						"details": "Tells the address of the owner",
						"returns": {
							"owner": "the address of the owner"
						}
					},
					"setMaintenance(bool)": {
						"details": "Sets if contract is on maintenance"
					},
					"transferProxyOwnership(address)": {
						"details": "Allows the current owner to transfer control of the contract to a newOwner.",
						"params": {
							"newOwner": "The address to transfer ownership to."
						}
					}
				},
				"title": "OwnedUpgradeabilityProxy",
				"version": 1
			},
			"evm": {
				"assembly": "    /* \"contracts/proxy.sol\":215:6394  contract OwnedUpgradeabilityProxy {... */\n  mstore(0x40, 0x80)\n    /* \"contracts/proxy.sol\":1340:1405  constructor() {... */\n  callvalue\n  dup1\n  iszero\n  tag_1\n  jumpi\n  0x00\n  dup1\n  revert\ntag_1:\n  pop\n    /* \"contracts/proxy.sol\":1364:1398  setUpgradeabilityOwner(msg.sender) */\n  tag_4\n    /* \"contracts/proxy.sol\":1387:1397  msg.sender */\n  caller\n    /* \"contracts/proxy.sol\":1364:1386  setUpgradeabilityOwner */\n  shl(0x20, tag_5)\n    /* \"contracts/proxy.sol\":1364:1398  setUpgradeabilityOwner(msg.sender) */\n  0x20\n  shr\n  jump\t// in\ntag_4:\n    /* \"contracts/proxy.sol\":215:6394  contract OwnedUpgradeabilityProxy {... */\n  jump(tag_6)\n    /* \"contracts/proxy.sol\":2340:2531  function setUpgradeabilityOwner(address newProxyOwner) internal {... */\ntag_5:\n    /* \"contracts/proxy.sol\":2414:2430  bytes32 position */\n  0x00\n    /* \"contracts/proxy.sol\":1198:1226  keccak256(\"com.proxy.owner\") */\n  0x85bd7031deaf76b80f9733e7da132fe310adf86a8e73260691b76988b4b7e35d\n    /* \"contracts/proxy.sol\":2414:2451  bytes32 position = proxyOwnerPosition */\n  swap1\n  pop\n    /* \"contracts/proxy.sol\":2501:2514  newProxyOwner */\n  dup2\n    /* \"contracts/proxy.sol\":2491:2499  position */\n  dup2\n    /* \"contracts/proxy.sol\":2484:2515  sstore(position, newProxyOwner) */\n  sstore\n    /* \"contracts/proxy.sol\":2470:2525  {... */\n  pop\n  pop\n  jump\t// out\n    /* \"contracts/proxy.sol\":215:6394  contract OwnedUpgradeabilityProxy {... */\ntag_6:\n  dataSize(sub_0)\n  dup1\n  dataOffset(sub_0)\n  0x00\n  codecopy\n  0x00\n  return\nstop\n\nsub_0: assembly {\n        /* \"contracts/proxy.sol\":215:6394  contract OwnedUpgradeabilityProxy {... */\n      mstore(0x40, 0x80)\n      jumpi(tag_1, lt(calldatasize, 0x04))\n      shr(0xe0, calldataload(0x00))\n      dup1\n      0x5c60da1b\n      gt\n      tag_10\n      jumpi\n      dup1\n      0x5c60da1b\n      eq\n      tag_6\n      jumpi\n      dup1\n      0x612f2f37\n      eq\n      tag_7\n      jumpi\n      dup1\n      0x6c376cc5\n      eq\n      tag_8\n      jumpi\n      dup1\n      0xf1739cae\n      eq\n      tag_9\n      jumpi\n      jump(tag_2)\n    tag_10:\n      dup1\n      0x025313a2\n      eq\n      tag_3\n      jumpi\n      dup1\n      0x3659cfe6\n      eq\n      tag_4\n      jumpi\n      dup1\n      0x4f1ef286\n      eq\n      tag_5\n      jumpi\n      jump(tag_2)\n    tag_1:\n      jumpi(tag_2, calldatasize)\n        /* \"contracts/proxy.sol\":4327:4338  _fallback() */\n      tag_13\n        /* \"contracts/proxy.sol\":4327:4336  _fallback */\n      tag_14\n        /* \"contracts/proxy.sol\":4327:4338  _fallback() */\n      jump\t// in\n    tag_13:\n        /* \"contracts/proxy.sol\":215:6394  contract OwnedUpgradeabilityProxy {... */\n      stop\n    tag_2:\n        /* \"contracts/proxy.sol\":4265:4276  _fallback() */\n      tag_17\n        /* \"contracts/proxy.sol\":4265:4274  _fallback */\n      tag_14\n        /* \"contracts/proxy.sol\":4265:4276  _fallback() */\n      jump\t// in\n    tag_17:\n        /* \"contracts/proxy.sol\":215:6394  contract OwnedUpgradeabilityProxy {... */\n      stop\n        /* \"contracts/proxy.sol\":2098:2276  function proxyOwner() public view returns (address owner) {... */\n    tag_3:\n      callvalue\n      dup1\n      iszero\n      tag_18\n      jumpi\n      0x00\n      dup1\n      revert\n    tag_18:\n      pop\n      tag_19\n      tag_20\n      jump\t// in\n    tag_19:\n      mload(0x40)\n      tag_21\n      swap2\n      swap1\n      tag_22\n      jump\t// in\n    tag_21:\n      mload(0x40)\n      dup1\n      swap2\n      sub\n      swap1\n      return\n        /* \"contracts/proxy.sol\":3157:3271  function upgradeTo(address newImplementation) public onlyProxyOwner {... */\n    tag_4:\n      callvalue\n      dup1\n      iszero\n      tag_23\n      jumpi\n      0x00\n      dup1\n      revert\n    tag_23:\n      pop\n      tag_24\n      0x04\n      dup1\n      calldatasize\n      sub\n      dup2\n      add\n      swap1\n      tag_25\n      swap2\n      swap1\n      tag_26\n      jump\t// in\n    tag_25:\n      tag_27\n      jump\t// in\n    tag_24:\n      stop\n        /* \"contracts/proxy.sol\":3754:4037  function upgradeToAndCall(address newImplementation, bytes memory data) payable public onlyProxyOwner {... */\n    tag_5:\n      tag_28\n      0x04\n      dup1\n      calldatasize\n      sub\n      dup2\n      add\n      swap1\n      tag_29\n      swap2\n      swap1\n      tag_30\n      jump\t// in\n    tag_29:\n      tag_31\n      jump\t// in\n    tag_28:\n      stop\n        /* \"contracts/proxy.sol\":4485:4669  function implementation() public view returns (address impl) {... */\n    tag_6:\n      callvalue\n      dup1\n      iszero\n      tag_32\n      jumpi\n      0x00\n      dup1\n      revert\n    tag_32:\n      pop\n      tag_33\n      tag_34\n      jump\t// in\n    tag_33:\n      mload(0x40)\n      tag_35\n      swap2\n      swap1\n      tag_22\n      jump\t// in\n    tag_35:\n      mload(0x40)\n      dup1\n      swap2\n      sub\n      swap1\n      return\n        /* \"contracts/proxy.sol\":1793:1987  function setMaintenance(bool _maintenance) external onlyProxyOwner {... */\n    tag_7:\n      callvalue\n      dup1\n      iszero\n      tag_36\n      jumpi\n      0x00\n      dup1\n      revert\n    tag_36:\n      pop\n      tag_37\n      0x04\n      dup1\n      calldatasize\n      sub\n      dup2\n      add\n      swap1\n      tag_38\n      swap2\n      swap1\n      tag_39\n      jump\t// in\n    tag_38:\n      tag_40\n      jump\t// in\n    tag_37:\n      stop\n        /* \"contracts/proxy.sol\":1533:1724  function maintenance() public view returns (bool _maintenance) {... */\n    tag_8:\n      callvalue\n      dup1\n      iszero\n      tag_41\n      jumpi\n      0x00\n      dup1\n      revert\n    tag_41:\n      pop\n      tag_42\n      tag_43\n      jump\t// in\n    tag_42:\n      mload(0x40)\n      tag_44\n      swap2\n      swap1\n      tag_45\n      jump\t// in\n    tag_44:\n      mload(0x40)\n      dup1\n      swap2\n      sub\n      swap1\n      return\n        /* \"contracts/proxy.sol\":2702:2965  function transferProxyOwnership(address newOwner) public onlyProxyOwner {... */\n    tag_9:\n      callvalue\n      dup1\n      iszero\n      tag_46\n      jumpi\n      0x00\n      dup1\n      revert\n    tag_46:\n      pop\n      tag_47\n      0x04\n      dup1\n      calldatasize\n      sub\n      dup2\n      add\n      swap1\n      tag_48\n      swap2\n      swap1\n      tag_26\n      jump\t// in\n    tag_48:\n      tag_49\n      jump\t// in\n    tag_47:\n      stop\n        /* \"contracts/proxy.sol\":5510:6176  function _fallback() internal {... */\n    tag_14:\n        /* \"contracts/proxy.sol\":5554:5567  maintenance() */\n      tag_51\n        /* \"contracts/proxy.sol\":5554:5565  maintenance */\n      tag_43\n        /* \"contracts/proxy.sol\":5554:5567  maintenance() */\n      jump\t// in\n    tag_51:\n        /* \"contracts/proxy.sol\":5550:5668  if (maintenance()) {... */\n      iszero\n      tag_52\n      jumpi\n        /* \"contracts/proxy.sol\":5605:5617  proxyOwner() */\n      tag_53\n        /* \"contracts/proxy.sol\":5605:5615  proxyOwner */\n      tag_20\n        /* \"contracts/proxy.sol\":5605:5617  proxyOwner() */\n      jump\t// in\n    tag_53:\n        /* \"contracts/proxy.sol\":5591:5617  msg.sender == proxyOwner() */\n      0xffffffffffffffffffffffffffffffffffffffff\n      and\n        /* \"contracts/proxy.sol\":5591:5601  msg.sender */\n      caller\n        /* \"contracts/proxy.sol\":5591:5617  msg.sender == proxyOwner() */\n      0xffffffffffffffffffffffffffffffffffffffff\n      and\n      eq\n        /* \"contracts/proxy.sol\":5583:5657  require(msg.sender == proxyOwner(), 'OwnedUpgradeabilityProxy: FORBIDDEN') */\n      tag_54\n      jumpi\n      mload(0x40)\n      0x08c379a000000000000000000000000000000000000000000000000000000000\n      dup2\n      mstore\n      0x04\n      add\n      tag_55\n      swap1\n      tag_56\n      jump\t// in\n    tag_55:\n      mload(0x40)\n      dup1\n      swap2\n      sub\n      swap1\n      revert\n    tag_54:\n        /* \"contracts/proxy.sol\":5550:5668  if (maintenance()) {... */\n    tag_52:\n        /* \"contracts/proxy.sol\":5677:5690  address _impl */\n      0x00\n        /* \"contracts/proxy.sol\":5693:5709  implementation() */\n      tag_57\n        /* \"contracts/proxy.sol\":5693:5707  implementation */\n      tag_34\n        /* \"contracts/proxy.sol\":5693:5709  implementation() */\n      jump\t// in\n    tag_57:\n        /* \"contracts/proxy.sol\":5677:5709  address _impl = implementation() */\n      swap1\n      pop\n        /* \"contracts/proxy.sol\":5744:5745  0 */\n      0x00\n        /* \"contracts/proxy.sol\":5727:5746  _impl != address(0) */\n      0xffffffffffffffffffffffffffffffffffffffff\n      and\n        /* \"contracts/proxy.sol\":5727:5732  _impl */\n      dup2\n        /* \"contracts/proxy.sol\":5727:5746  _impl != address(0) */\n      0xffffffffffffffffffffffffffffffffffffffff\n      and\n      eq\n      iszero\n        /* \"contracts/proxy.sol\":5719:5784  require(_impl != address(0), 'OwnedUpgradeabilityProxy: INVALID') */\n      tag_58\n      jumpi\n      mload(0x40)\n      0x08c379a000000000000000000000000000000000000000000000000000000000\n      dup2\n      mstore\n      0x04\n      add\n      tag_59\n      swap1\n      tag_60\n      jump\t// in\n    tag_59:\n      mload(0x40)\n      dup1\n      swap2\n      sub\n      swap1\n      revert\n    tag_58:\n        /* \"contracts/proxy.sol\":5834:5838  0x40 */\n      0x40\n        /* \"contracts/proxy.sol\":5828:5839  mload(0x40) */\n      mload\n        /* \"contracts/proxy.sol\":5873:5887  calldatasize() */\n      calldatasize\n        /* \"contracts/proxy.sol\":5870:5871  0 */\n      0x00\n        /* \"contracts/proxy.sol\":5865:5868  ptr */\n      dup3\n        /* \"contracts/proxy.sol\":5852:5888  calldatacopy(ptr, 0, calldatasize()) */\n      calldatacopy\n        /* \"contracts/proxy.sol\":5966:5967  0 */\n      0x00\n        /* \"contracts/proxy.sol\":5963:5964  0 */\n      dup1\n        /* \"contracts/proxy.sol\":5947:5961  calldatasize() */\n      calldatasize\n        /* \"contracts/proxy.sol\":5942:5945  ptr */\n      dup4\n        /* \"contracts/proxy.sol\":5935:5940  _impl */\n      dup6\n        /* \"contracts/proxy.sol\":5928:5933  gas() */\n      gas\n        /* \"contracts/proxy.sol\":5915:5968  delegatecall(gas(), _impl, ptr, calldatasize(), 0, 0) */\n      delegatecall\n        /* \"contracts/proxy.sol\":5993:6009  returndatasize() */\n      returndatasize\n        /* \"contracts/proxy.sol\":6045:6049  size */\n      dup1\n        /* \"contracts/proxy.sol\":6042:6043  0 */\n      0x00\n        /* \"contracts/proxy.sol\":6037:6040  ptr */\n      dup5\n        /* \"contracts/proxy.sol\":6022:6050  returndatacopy(ptr, 0, size) */\n      returndatacopy\n        /* \"contracts/proxy.sol\":6071:6077  result */\n      dup2\n        /* \"contracts/proxy.sol\":6095:6096  0 */\n      0x00\n        /* \"contracts/proxy.sol\":6090:6118  case 0 { revert(ptr, size) } */\n      dup2\n      eq\n      tag_62\n      jumpi\n        /* \"contracts/proxy.sol\":6153:6157  size */\n      dup2\n        /* \"contracts/proxy.sol\":6148:6151  ptr */\n      dup5\n        /* \"contracts/proxy.sol\":6141:6158  return(ptr, size) */\n      return\n        /* \"contracts/proxy.sol\":6090:6118  case 0 { revert(ptr, size) } */\n    tag_62:\n        /* \"contracts/proxy.sol\":6111:6115  size */\n      dup2\n        /* \"contracts/proxy.sol\":6106:6109  ptr */\n      dup5\n        /* \"contracts/proxy.sol\":6099:6116  revert(ptr, size) */\n      revert\n        /* \"contracts/proxy.sol\":2098:2276  function proxyOwner() public view returns (address owner) {... */\n    tag_20:\n        /* \"contracts/proxy.sol\":2141:2154  address owner */\n      0x00\n        /* \"contracts/proxy.sol\":2166:2182  bytes32 position */\n      dup1\n        /* \"contracts/proxy.sol\":1198:1226  keccak256(\"com.proxy.owner\") */\n      0x85bd7031deaf76b80f9733e7da132fe310adf86a8e73260691b76988b4b7e35d\n        /* \"contracts/proxy.sol\":2166:2203  bytes32 position = proxyOwnerPosition */\n      swap1\n      pop\n        /* \"contracts/proxy.sol\":2251:2259  position */\n      dup1\n        /* \"contracts/proxy.sol\":2245:2260  sload(position) */\n      sload\n        /* \"contracts/proxy.sol\":2236:2260  owner := sload(position) */\n      swap2\n      pop\n        /* \"contracts/proxy.sol\":2222:2270  {... */\n      pop\n      swap1\n      jump\t// out\n        /* \"contracts/proxy.sol\":3157:3271  function upgradeTo(address newImplementation) public onlyProxyOwner {... */\n    tag_27:\n        /* \"contracts/proxy.sol\":6322:6334  proxyOwner() */\n      tag_65\n        /* \"contracts/proxy.sol\":6322:6332  proxyOwner */\n      tag_20\n        /* \"contracts/proxy.sol\":6322:6334  proxyOwner() */\n      jump\t// in\n    tag_65:\n        /* \"contracts/proxy.sol\":6308:6334  msg.sender == proxyOwner() */\n      0xffffffffffffffffffffffffffffffffffffffff\n      and\n        /* \"contracts/proxy.sol\":6308:6318  msg.sender */\n      caller\n        /* \"contracts/proxy.sol\":6308:6334  msg.sender == proxyOwner() */\n      0xffffffffffffffffffffffffffffffffffffffff\n      and\n      eq\n        /* \"contracts/proxy.sol\":6300:6374  require(msg.sender == proxyOwner(), 'OwnedUpgradeabilityProxy: FORBIDDEN') */\n      tag_66\n      jumpi\n      mload(0x40)\n      0x08c379a000000000000000000000000000000000000000000000000000000000\n      dup2\n      mstore\n      0x04\n      add\n      tag_67\n      swap1\n      tag_56\n      jump\t// in\n    tag_67:\n      mload(0x40)\n      dup1\n      swap2\n      sub\n      swap1\n      revert\n    tag_66:\n        /* \"contracts/proxy.sol\":3235:3264  _upgradeTo(newImplementation) */\n      tag_69\n        /* \"contracts/proxy.sol\":3246:3263  newImplementation */\n      dup2\n        /* \"contracts/proxy.sol\":3235:3245  _upgradeTo */\n      tag_70\n        /* \"contracts/proxy.sol\":3235:3264  _upgradeTo(newImplementation) */\n      jump\t// in\n    tag_69:\n        /* \"contracts/proxy.sol\":3157:3271  function upgradeTo(address newImplementation) public onlyProxyOwner {... */\n      pop\n      jump\t// out\n        /* \"contracts/proxy.sol\":3754:4037  function upgradeToAndCall(address newImplementation, bytes memory data) payable public onlyProxyOwner {... */\n    tag_31:\n        /* \"contracts/proxy.sol\":6322:6334  proxyOwner() */\n      tag_72\n        /* \"contracts/proxy.sol\":6322:6332  proxyOwner */\n      tag_20\n        /* \"contracts/proxy.sol\":6322:6334  proxyOwner() */\n      jump\t// in\n    tag_72:\n        /* \"contracts/proxy.sol\":6308:6334  msg.sender == proxyOwner() */\n      0xffffffffffffffffffffffffffffffffffffffff\n      and\n        /* \"contracts/proxy.sol\":6308:6318  msg.sender */\n      caller\n        /* \"contracts/proxy.sol\":6308:6334  msg.sender == proxyOwner() */\n      0xffffffffffffffffffffffffffffffffffffffff\n      and\n      eq\n        /* \"contracts/proxy.sol\":6300:6374  require(msg.sender == proxyOwner(), 'OwnedUpgradeabilityProxy: FORBIDDEN') */\n      tag_73\n      jumpi\n      mload(0x40)\n      0x08c379a000000000000000000000000000000000000000000000000000000000\n      dup2\n      mstore\n      0x04\n      add\n      tag_74\n      swap1\n      tag_56\n      jump\t// in\n    tag_74:\n      mload(0x40)\n      dup1\n      swap2\n      sub\n      swap1\n      revert\n    tag_73:\n        /* \"contracts/proxy.sol\":3866:3894  upgradeTo(newImplementation) */\n      tag_76\n        /* \"contracts/proxy.sol\":3876:3893  newImplementation */\n      dup3\n        /* \"contracts/proxy.sol\":3866:3875  upgradeTo */\n      tag_27\n        /* \"contracts/proxy.sol\":3866:3894  upgradeTo(newImplementation) */\n      jump\t// in\n    tag_76:\n        /* \"contracts/proxy.sol\":3905:3917  bool success */\n      0x00\n        /* \"contracts/proxy.sol\":3931:3935  this */\n      address\n        /* \"contracts/proxy.sol\":3923:3941  address(this).call */\n      0xffffffffffffffffffffffffffffffffffffffff\n      and\n        /* \"contracts/proxy.sol\":3950:3959  msg.value */\n      callvalue\n        /* \"contracts/proxy.sol\":3962:3966  data */\n      dup4\n        /* \"contracts/proxy.sol\":3923:3967  address(this).call{ value: msg.value }(data) */\n      mload(0x40)\n      tag_77\n      swap2\n      swap1\n      tag_78\n      jump\t// in\n    tag_77:\n      0x00\n      mload(0x40)\n      dup1\n      dup4\n      sub\n      dup2\n      dup6\n      dup8\n      gas\n      call\n      swap3\n      pop\n      pop\n      pop\n      returndatasize\n      dup1\n      0x00\n      dup2\n      eq\n      tag_81\n      jumpi\n      mload(0x40)\n      swap2\n      pop\n      and(add(returndatasize, 0x3f), not(0x1f))\n      dup3\n      add\n      0x40\n      mstore\n      returndatasize\n      dup3\n      mstore\n      returndatasize\n      0x00\n      0x20\n      dup5\n      add\n      returndatacopy\n      jump(tag_80)\n    tag_81:\n      0x60\n      swap2\n      pop\n    tag_80:\n      pop\n        /* \"contracts/proxy.sol\":3904:3967  (bool success, ) = address(this).call{ value: msg.value }(data) */\n      pop\n      swap1\n      pop\n        /* \"contracts/proxy.sol\":3985:3992  success */\n      dup1\n        /* \"contracts/proxy.sol\":3977:4030  require(success, \"OwnedUpgradeabilityProxy: INVALID\") */\n      tag_82\n      jumpi\n      mload(0x40)\n      0x08c379a000000000000000000000000000000000000000000000000000000000\n      dup2\n      mstore\n      0x04\n      add\n      tag_83\n      swap1\n      tag_60\n      jump\t// in\n    tag_83:\n      mload(0x40)\n      dup1\n      swap2\n      sub\n      swap1\n      revert\n    tag_82:\n        /* \"contracts/proxy.sol\":6384:6385  _ */\n      pop\n        /* \"contracts/proxy.sol\":3754:4037  function upgradeToAndCall(address newImplementation, bytes memory data) payable public onlyProxyOwner {... */\n      pop\n      pop\n      jump\t// out\n        /* \"contracts/proxy.sol\":4485:4669  function implementation() public view returns (address impl) {... */\n    tag_34:\n        /* \"contracts/proxy.sol\":4532:4544  address impl */\n      0x00\n        /* \"contracts/proxy.sol\":4556:4572  bytes32 position */\n      dup1\n        /* \"contracts/proxy.sol\":1056:1093  keccak256(\"com.proxy.implementation\") */\n      0xf968882b178b4a61d620bde63916829c95f3e1b54eb01ef03837ff1b870f4076\n        /* \"contracts/proxy.sol\":4556:4597  bytes32 position = implementationPosition */\n      swap1\n      pop\n        /* \"contracts/proxy.sol\":4644:4652  position */\n      dup1\n        /* \"contracts/proxy.sol\":4638:4653  sload(position) */\n      sload\n        /* \"contracts/proxy.sol\":4630:4653  impl := sload(position) */\n      swap2\n      pop\n        /* \"contracts/proxy.sol\":4616:4663  {... */\n      pop\n      swap1\n      jump\t// out\n        /* \"contracts/proxy.sol\":1793:1987  function setMaintenance(bool _maintenance) external onlyProxyOwner {... */\n    tag_40:\n        /* \"contracts/proxy.sol\":6322:6334  proxyOwner() */\n      tag_86\n        /* \"contracts/proxy.sol\":6322:6332  proxyOwner */\n      tag_20\n        /* \"contracts/proxy.sol\":6322:6334  proxyOwner() */\n      jump\t// in\n    tag_86:\n        /* \"contracts/proxy.sol\":6308:6334  msg.sender == proxyOwner() */\n      0xffffffffffffffffffffffffffffffffffffffff\n      and\n        /* \"contracts/proxy.sol\":6308:6318  msg.sender */\n      caller\n        /* \"contracts/proxy.sol\":6308:6334  msg.sender == proxyOwner() */\n      0xffffffffffffffffffffffffffffffffffffffff\n      and\n      eq\n        /* \"contracts/proxy.sol\":6300:6374  require(msg.sender == proxyOwner(), 'OwnedUpgradeabilityProxy: FORBIDDEN') */\n      tag_87\n      jumpi\n      mload(0x40)\n      0x08c379a000000000000000000000000000000000000000000000000000000000\n      dup2\n      mstore\n      0x04\n      add\n      tag_88\n      swap1\n      tag_56\n      jump\t// in\n    tag_88:\n      mload(0x40)\n      dup1\n      swap2\n      sub\n      swap1\n      revert\n    tag_87:\n        /* \"contracts/proxy.sol\":1870:1886  bytes32 position */\n      0x00\n        /* \"contracts/proxy.sol\":897:931  keccak256(\"com.proxy.maintenance\") */\n      0xce60c5db904241f4fe710c6b7d7c2e6f59bb4f2afc9ad1549ac9b29eb7f522b6\n        /* \"contracts/proxy.sol\":1870:1908  bytes32 position = maintenancePosition */\n      swap1\n      pop\n        /* \"contracts/proxy.sol\":1958:1970  _maintenance */\n      dup2\n        /* \"contracts/proxy.sol\":1948:1956  position */\n      dup2\n        /* \"contracts/proxy.sol\":1941:1971  sstore(position, _maintenance) */\n      sstore\n        /* \"contracts/proxy.sol\":1927:1981  {... */\n      pop\n        /* \"contracts/proxy.sol\":1793:1987  function setMaintenance(bool _maintenance) external onlyProxyOwner {... */\n      pop\n      jump\t// out\n        /* \"contracts/proxy.sol\":1533:1724  function maintenance() public view returns (bool _maintenance) {... */\n    tag_43:\n        /* \"contracts/proxy.sol\":1577:1594  bool _maintenance */\n      0x00\n        /* \"contracts/proxy.sol\":1606:1622  bytes32 position */\n      dup1\n        /* \"contracts/proxy.sol\":897:931  keccak256(\"com.proxy.maintenance\") */\n      0xce60c5db904241f4fe710c6b7d7c2e6f59bb4f2afc9ad1549ac9b29eb7f522b6\n        /* \"contracts/proxy.sol\":1606:1644  bytes32 position = maintenancePosition */\n      swap1\n      pop\n        /* \"contracts/proxy.sol\":1699:1707  position */\n      dup1\n        /* \"contracts/proxy.sol\":1693:1708  sload(position) */\n      sload\n        /* \"contracts/proxy.sol\":1677:1708  _maintenance := sload(position) */\n      swap2\n      pop\n        /* \"contracts/proxy.sol\":1663:1718  {... */\n      pop\n      swap1\n      jump\t// out\n        /* \"contracts/proxy.sol\":2702:2965  function transferProxyOwnership(address newOwner) public onlyProxyOwner {... */\n    tag_49:\n        /* \"contracts/proxy.sol\":6322:6334  proxyOwner() */\n      tag_92\n        /* \"contracts/proxy.sol\":6322:6332  proxyOwner */\n      tag_20\n        /* \"contracts/proxy.sol\":6322:6334  proxyOwner() */\n      jump\t// in\n    tag_92:\n        /* \"contracts/proxy.sol\":6308:6334  msg.sender == proxyOwner() */\n      0xffffffffffffffffffffffffffffffffffffffff\n      and\n        /* \"contracts/proxy.sol\":6308:6318  msg.sender */\n      caller\n        /* \"contracts/proxy.sol\":6308:6334  msg.sender == proxyOwner() */\n      0xffffffffffffffffffffffffffffffffffffffff\n      and\n      eq\n        /* \"contracts/proxy.sol\":6300:6374  require(msg.sender == proxyOwner(), 'OwnedUpgradeabilityProxy: FORBIDDEN') */\n      tag_93\n      jumpi\n      mload(0x40)\n      0x08c379a000000000000000000000000000000000000000000000000000000000\n      dup2\n      mstore\n      0x04\n      add\n      tag_94\n      swap1\n      tag_56\n      jump\t// in\n    tag_94:\n      mload(0x40)\n      dup1\n      swap2\n      sub\n      swap1\n      revert\n    tag_93:\n        /* \"contracts/proxy.sol\":2812:2813  0 */\n      0x00\n        /* \"contracts/proxy.sol\":2792:2814  newOwner != address(0) */\n      0xffffffffffffffffffffffffffffffffffffffff\n      and\n        /* \"contracts/proxy.sol\":2792:2800  newOwner */\n      dup2\n        /* \"contracts/proxy.sol\":2792:2814  newOwner != address(0) */\n      0xffffffffffffffffffffffffffffffffffffffff\n      and\n      eq\n      iszero\n        /* \"contracts/proxy.sol\":2784:2852  require(newOwner != address(0), 'OwnedUpgradeabilityProxy: INVALID') */\n      tag_96\n      jumpi\n      mload(0x40)\n      0x08c379a000000000000000000000000000000000000000000000000000000000\n      dup2\n      mstore\n      0x04\n      add\n      tag_97\n      swap1\n      tag_60\n      jump\t// in\n    tag_97:\n      mload(0x40)\n      dup1\n      swap2\n      sub\n      swap1\n      revert\n    tag_96:\n        /* \"contracts/proxy.sol\":2867:2916  ProxyOwnershipTransferred(proxyOwner(), newOwner) */\n      0x5a3e66efaa1e445ebd894728a69d6959842ea1e97bd79b892797106e270efcd9\n        /* \"contracts/proxy.sol\":2893:2905  proxyOwner() */\n      tag_98\n        /* \"contracts/proxy.sol\":2893:2903  proxyOwner */\n      tag_20\n        /* \"contracts/proxy.sol\":2893:2905  proxyOwner() */\n      jump\t// in\n    tag_98:\n        /* \"contracts/proxy.sol\":2907:2915  newOwner */\n      dup3\n        /* \"contracts/proxy.sol\":2867:2916  ProxyOwnershipTransferred(proxyOwner(), newOwner) */\n      mload(0x40)\n      tag_99\n      swap3\n      swap2\n      swap1\n      tag_100\n      jump\t// in\n    tag_99:\n      mload(0x40)\n      dup1\n      swap2\n      sub\n      swap1\n      log1\n        /* \"contracts/proxy.sol\":2926:2958  setUpgradeabilityOwner(newOwner) */\n      tag_101\n        /* \"contracts/proxy.sol\":2949:2957  newOwner */\n      dup2\n        /* \"contracts/proxy.sol\":2926:2948  setUpgradeabilityOwner */\n      tag_102\n        /* \"contracts/proxy.sol\":2926:2958  setUpgradeabilityOwner(newOwner) */\n      jump\t// in\n    tag_101:\n        /* \"contracts/proxy.sol\":2702:2965  function transferProxyOwnership(address newOwner) public onlyProxyOwner {... */\n      pop\n      jump\t// out\n        /* \"contracts/proxy.sol\":5197:5504  function _upgradeTo(address newImplementation) internal {... */\n    tag_70:\n        /* \"contracts/proxy.sol\":5263:5292  address currentImplementation */\n      0x00\n        /* \"contracts/proxy.sol\":5295:5311  implementation() */\n      tag_104\n        /* \"contracts/proxy.sol\":5295:5309  implementation */\n      tag_34\n        /* \"contracts/proxy.sol\":5295:5311  implementation() */\n      jump\t// in\n    tag_104:\n        /* \"contracts/proxy.sol\":5263:5311  address currentImplementation = implementation() */\n      swap1\n      pop\n        /* \"contracts/proxy.sol\":5354:5371  newImplementation */\n      dup2\n        /* \"contracts/proxy.sol\":5329:5371  currentImplementation != newImplementation */\n      0xffffffffffffffffffffffffffffffffffffffff\n      and\n        /* \"contracts/proxy.sol\":5329:5350  currentImplementation */\n      dup2\n        /* \"contracts/proxy.sol\":5329:5371  currentImplementation != newImplementation */\n      0xffffffffffffffffffffffffffffffffffffffff\n      and\n      eq\n      iszero\n        /* \"contracts/proxy.sol\":5321:5409  require(currentImplementation != newImplementation, 'OwnedUpgradeabilityProxy: INVALID') */\n      tag_105\n      jumpi\n      mload(0x40)\n      0x08c379a000000000000000000000000000000000000000000000000000000000\n      dup2\n      mstore\n      0x04\n      add\n      tag_106\n      swap1\n      tag_60\n      jump\t// in\n    tag_106:\n      mload(0x40)\n      dup1\n      swap2\n      sub\n      swap1\n      revert\n    tag_105:\n        /* \"contracts/proxy.sol\":5419:5455  setImplementation(newImplementation) */\n      tag_107\n        /* \"contracts/proxy.sol\":5437:5454  newImplementation */\n      dup3\n        /* \"contracts/proxy.sol\":5419:5436  setImplementation */\n      tag_108\n        /* \"contracts/proxy.sol\":5419:5455  setImplementation(newImplementation) */\n      jump\t// in\n    tag_107:\n        /* \"contracts/proxy.sol\":5479:5496  newImplementation */\n      dup2\n        /* \"contracts/proxy.sol\":5470:5497  Upgraded(newImplementation) */\n      0xffffffffffffffffffffffffffffffffffffffff\n      and\n      0xbc7cd75a20ee27fd9adebab32041f755214dbc6bffa90cc0225b39da2e5c2d3b\n      mload(0x40)\n      mload(0x40)\n      dup1\n      swap2\n      sub\n      swap1\n      log2\n        /* \"contracts/proxy.sol\":5197:5504  function _upgradeTo(address newImplementation) internal {... */\n      pop\n      pop\n      jump\t// out\n        /* \"contracts/proxy.sol\":2340:2531  function setUpgradeabilityOwner(address newProxyOwner) internal {... */\n    tag_102:\n        /* \"contracts/proxy.sol\":2414:2430  bytes32 position */\n      0x00\n        /* \"contracts/proxy.sol\":1198:1226  keccak256(\"com.proxy.owner\") */\n      0x85bd7031deaf76b80f9733e7da132fe310adf86a8e73260691b76988b4b7e35d\n        /* \"contracts/proxy.sol\":2414:2451  bytes32 position = proxyOwnerPosition */\n      swap1\n      pop\n        /* \"contracts/proxy.sol\":2501:2514  newProxyOwner */\n      dup2\n        /* \"contracts/proxy.sol\":2491:2499  position */\n      dup2\n        /* \"contracts/proxy.sol\":2484:2515  sstore(position, newProxyOwner) */\n      sstore\n        /* \"contracts/proxy.sol\":2470:2525  {... */\n      pop\n      pop\n      jump\t// out\n        /* \"contracts/proxy.sol\":4836:5034  function setImplementation(address newImplementation) internal {... */\n    tag_108:\n        /* \"contracts/proxy.sol\":4909:4925  bytes32 position */\n      0x00\n        /* \"contracts/proxy.sol\":1056:1093  keccak256(\"com.proxy.implementation\") */\n      0xf968882b178b4a61d620bde63916829c95f3e1b54eb01ef03837ff1b870f4076\n        /* \"contracts/proxy.sol\":4909:4950  bytes32 position = implementationPosition */\n      swap1\n      pop\n        /* \"contracts/proxy.sol\":5000:5017  newImplementation */\n      dup2\n        /* \"contracts/proxy.sol\":4990:4998  position */\n      dup2\n        /* \"contracts/proxy.sol\":4983:5018  sstore(position, newImplementation) */\n      sstore\n        /* \"contracts/proxy.sol\":4969:5028  {... */\n      pop\n      pop\n      jump\t// out\n        /* \"#utility.yul\":7:350   */\n    tag_112:\n      0x00\n        /* \"#utility.yul\":109:174   */\n      tag_114\n        /* \"#utility.yul\":125:173   */\n      tag_115\n        /* \"#utility.yul\":166:172   */\n      dup5\n        /* \"#utility.yul\":125:173   */\n      tag_116\n      jump\t// in\n    tag_115:\n        /* \"#utility.yul\":109:174   */\n      tag_117\n      jump\t// in\n    tag_114:\n        /* \"#utility.yul\":100:174   */\n      swap1\n      pop\n        /* \"#utility.yul\":197:203   */\n      dup3\n        /* \"#utility.yul\":190:195   */\n      dup2\n        /* \"#utility.yul\":183:204   */\n      mstore\n        /* \"#utility.yul\":235:239   */\n      0x20\n        /* \"#utility.yul\":228:233   */\n      dup2\n        /* \"#utility.yul\":224:240   */\n      add\n        /* \"#utility.yul\":273:276   */\n      dup5\n        /* \"#utility.yul\":264:270   */\n      dup5\n        /* \"#utility.yul\":259:262   */\n      dup5\n        /* \"#utility.yul\":255:271   */\n      add\n        /* \"#utility.yul\":252:277   */\n      gt\n        /* \"#utility.yul\":249:251   */\n      iszero\n      tag_118\n      jumpi\n        /* \"#utility.yul\":290:291   */\n      0x00\n        /* \"#utility.yul\":287:288   */\n      dup1\n        /* \"#utility.yul\":280:292   */\n      revert\n        /* \"#utility.yul\":249:251   */\n    tag_118:\n        /* \"#utility.yul\":303:344   */\n      tag_119\n        /* \"#utility.yul\":337:343   */\n      dup5\n        /* \"#utility.yul\":332:335   */\n      dup3\n        /* \"#utility.yul\":327:330   */\n      dup6\n        /* \"#utility.yul\":303:344   */\n      tag_120\n      jump\t// in\n    tag_119:\n        /* \"#utility.yul\":90:350   */\n      pop\n      swap4\n      swap3\n      pop\n      pop\n      pop\n      jump\t// out\n        /* \"#utility.yul\":356:495   */\n    tag_121:\n      0x00\n        /* \"#utility.yul\":440:446   */\n      dup2\n        /* \"#utility.yul\":427:447   */\n      calldataload\n        /* \"#utility.yul\":418:447   */\n      swap1\n      pop\n        /* \"#utility.yul\":456:489   */\n      tag_123\n        /* \"#utility.yul\":483:488   */\n      dup2\n        /* \"#utility.yul\":456:489   */\n      tag_124\n      jump\t// in\n    tag_123:\n        /* \"#utility.yul\":408:495   */\n      swap3\n      swap2\n      pop\n      pop\n      jump\t// out\n        /* \"#utility.yul\":501:634   */\n    tag_125:\n      0x00\n        /* \"#utility.yul\":582:588   */\n      dup2\n        /* \"#utility.yul\":569:589   */\n      calldataload\n        /* \"#utility.yul\":560:589   */\n      swap1\n      pop\n        /* \"#utility.yul\":598:628   */\n      tag_127\n        /* \"#utility.yul\":622:627   */\n      dup2\n        /* \"#utility.yul\":598:628   */\n      tag_128\n      jump\t// in\n    tag_127:\n        /* \"#utility.yul\":550:634   */\n      swap3\n      swap2\n      pop\n      pop\n      jump\t// out\n        /* \"#utility.yul\":653:924   */\n    tag_129:\n      0x00\n        /* \"#utility.yul\":757:760   */\n      dup3\n        /* \"#utility.yul\":750:754   */\n      0x1f\n        /* \"#utility.yul\":742:748   */\n      dup4\n        /* \"#utility.yul\":738:755   */\n      add\n        /* \"#utility.yul\":734:761   */\n      slt\n        /* \"#utility.yul\":724:726   */\n      tag_131\n      jumpi\n        /* \"#utility.yul\":775:776   */\n      0x00\n        /* \"#utility.yul\":772:773   */\n      dup1\n        /* \"#utility.yul\":765:777   */\n      revert\n        /* \"#utility.yul\":724:726   */\n    tag_131:\n        /* \"#utility.yul\":815:821   */\n      dup2\n        /* \"#utility.yul\":802:822   */\n      calldataload\n        /* \"#utility.yul\":840:918   */\n      tag_132\n        /* \"#utility.yul\":914:917   */\n      dup5\n        /* \"#utility.yul\":906:912   */\n      dup3\n        /* \"#utility.yul\":899:903   */\n      0x20\n        /* \"#utility.yul\":891:897   */\n      dup7\n        /* \"#utility.yul\":887:904   */\n      add\n        /* \"#utility.yul\":840:918   */\n      tag_112\n      jump\t// in\n    tag_132:\n        /* \"#utility.yul\":831:918   */\n      swap2\n      pop\n        /* \"#utility.yul\":714:924   */\n      pop\n      swap3\n      swap2\n      pop\n      pop\n      jump\t// out\n        /* \"#utility.yul\":930:1192   */\n    tag_26:\n      0x00\n        /* \"#utility.yul\":1038:1040   */\n      0x20\n        /* \"#utility.yul\":1026:1035   */\n      dup3\n        /* \"#utility.yul\":1017:1024   */\n      dup5\n        /* \"#utility.yul\":1013:1036   */\n      sub\n        /* \"#utility.yul\":1009:1041   */\n      slt\n        /* \"#utility.yul\":1006:1008   */\n      iszero\n      tag_134\n      jumpi\n        /* \"#utility.yul\":1054:1055   */\n      0x00\n        /* \"#utility.yul\":1051:1052   */\n      dup1\n        /* \"#utility.yul\":1044:1056   */\n      revert\n        /* \"#utility.yul\":1006:1008   */\n    tag_134:\n        /* \"#utility.yul\":1097:1098   */\n      0x00\n        /* \"#utility.yul\":1122:1175   */\n      tag_135\n        /* \"#utility.yul\":1167:1174   */\n      dup5\n        /* \"#utility.yul\":1158:1164   */\n      dup3\n        /* \"#utility.yul\":1147:1156   */\n      dup6\n        /* \"#utility.yul\":1143:1165   */\n      add\n        /* \"#utility.yul\":1122:1175   */\n      tag_121\n      jump\t// in\n    tag_135:\n        /* \"#utility.yul\":1112:1175   */\n      swap2\n      pop\n        /* \"#utility.yul\":1068:1185   */\n      pop\n        /* \"#utility.yul\":996:1192   */\n      swap3\n      swap2\n      pop\n      pop\n      jump\t// out\n        /* \"#utility.yul\":1198:1716   */\n    tag_30:\n      0x00\n      dup1\n        /* \"#utility.yul\":1332:1334   */\n      0x40\n        /* \"#utility.yul\":1320:1329   */\n      dup4\n        /* \"#utility.yul\":1311:1318   */\n      dup6\n        /* \"#utility.yul\":1307:1330   */\n      sub\n        /* \"#utility.yul\":1303:1335   */\n      slt\n        /* \"#utility.yul\":1300:1302   */\n      iszero\n      tag_137\n      jumpi\n        /* \"#utility.yul\":1348:1349   */\n      0x00\n        /* \"#utility.yul\":1345:1346   */\n      dup1\n        /* \"#utility.yul\":1338:1350   */\n      revert\n        /* \"#utility.yul\":1300:1302   */\n    tag_137:\n        /* \"#utility.yul\":1391:1392   */\n      0x00\n        /* \"#utility.yul\":1416:1469   */\n      tag_138\n        /* \"#utility.yul\":1461:1468   */\n      dup6\n        /* \"#utility.yul\":1452:1458   */\n      dup3\n        /* \"#utility.yul\":1441:1450   */\n      dup7\n        /* \"#utility.yul\":1437:1459   */\n      add\n        /* \"#utility.yul\":1416:1469   */\n      tag_121\n      jump\t// in\n    tag_138:\n        /* \"#utility.yul\":1406:1469   */\n      swap3\n      pop\n        /* \"#utility.yul\":1362:1479   */\n      pop\n        /* \"#utility.yul\":1546:1548   */\n      0x20\n        /* \"#utility.yul\":1535:1544   */\n      dup4\n        /* \"#utility.yul\":1531:1549   */\n      add\n        /* \"#utility.yul\":1518:1550   */\n      calldataload\n        /* \"#utility.yul\":1577:1595   */\n      0xffffffffffffffff\n        /* \"#utility.yul\":1569:1575   */\n      dup2\n        /* \"#utility.yul\":1566:1596   */\n      gt\n        /* \"#utility.yul\":1563:1565   */\n      iszero\n      tag_139\n      jumpi\n        /* \"#utility.yul\":1609:1610   */\n      0x00\n        /* \"#utility.yul\":1606:1607   */\n      dup1\n        /* \"#utility.yul\":1599:1611   */\n      revert\n        /* \"#utility.yul\":1563:1565   */\n    tag_139:\n        /* \"#utility.yul\":1637:1699   */\n      tag_140\n        /* \"#utility.yul\":1691:1698   */\n      dup6\n        /* \"#utility.yul\":1682:1688   */\n      dup3\n        /* \"#utility.yul\":1671:1680   */\n      dup7\n        /* \"#utility.yul\":1667:1689   */\n      add\n        /* \"#utility.yul\":1637:1699   */\n      tag_129\n      jump\t// in\n    tag_140:\n        /* \"#utility.yul\":1627:1699   */\n      swap2\n      pop\n        /* \"#utility.yul\":1489:1709   */\n      pop\n        /* \"#utility.yul\":1290:1716   */\n      swap3\n      pop\n      swap3\n      swap1\n      pop\n      jump\t// out\n        /* \"#utility.yul\":1722:1978   */\n    tag_39:\n      0x00\n        /* \"#utility.yul\":1827:1829   */\n      0x20\n        /* \"#utility.yul\":1815:1824   */\n      dup3\n        /* \"#utility.yul\":1806:1813   */\n      dup5\n        /* \"#utility.yul\":1802:1825   */\n      sub\n        /* \"#utility.yul\":1798:1830   */\n      slt\n        /* \"#utility.yul\":1795:1797   */\n      iszero\n      tag_142\n      jumpi\n        /* \"#utility.yul\":1843:1844   */\n      0x00\n        /* \"#utility.yul\":1840:1841   */\n      dup1\n        /* \"#utility.yul\":1833:1845   */\n      revert\n        /* \"#utility.yul\":1795:1797   */\n    tag_142:\n        /* \"#utility.yul\":1886:1887   */\n      0x00\n        /* \"#utility.yul\":1911:1961   */\n      tag_143\n        /* \"#utility.yul\":1953:1960   */\n      dup5\n        /* \"#utility.yul\":1944:1950   */\n      dup3\n        /* \"#utility.yul\":1933:1942   */\n      dup6\n        /* \"#utility.yul\":1929:1951   */\n      add\n        /* \"#utility.yul\":1911:1961   */\n      tag_125\n      jump\t// in\n    tag_143:\n        /* \"#utility.yul\":1901:1961   */\n      swap2\n      pop\n        /* \"#utility.yul\":1857:1971   */\n      pop\n        /* \"#utility.yul\":1785:1978   */\n      swap3\n      swap2\n      pop\n      pop\n      jump\t// out\n        /* \"#utility.yul\":1984:2102   */\n    tag_144:\n        /* \"#utility.yul\":2071:2095   */\n      tag_146\n        /* \"#utility.yul\":2089:2094   */\n      dup2\n        /* \"#utility.yul\":2071:2095   */\n      tag_147\n      jump\t// in\n    tag_146:\n        /* \"#utility.yul\":2066:2069   */\n      dup3\n        /* \"#utility.yul\":2059:2096   */\n      mstore\n        /* \"#utility.yul\":2049:2102   */\n      pop\n      pop\n      jump\t// out\n        /* \"#utility.yul\":2108:2217   */\n    tag_148:\n        /* \"#utility.yul\":2189:2210   */\n      tag_150\n        /* \"#utility.yul\":2204:2209   */\n      dup2\n        /* \"#utility.yul\":2189:2210   */\n      tag_151\n      jump\t// in\n    tag_150:\n        /* \"#utility.yul\":2184:2187   */\n      dup3\n        /* \"#utility.yul\":2177:2211   */\n      mstore\n        /* \"#utility.yul\":2167:2217   */\n      pop\n      pop\n      jump\t// out\n        /* \"#utility.yul\":2223:2596   */\n    tag_152:\n      0x00\n        /* \"#utility.yul\":2355:2393   */\n      tag_154\n        /* \"#utility.yul\":2387:2392   */\n      dup3\n        /* \"#utility.yul\":2355:2393   */\n      tag_155\n      jump\t// in\n    tag_154:\n        /* \"#utility.yul\":2409:2497   */\n      tag_156\n        /* \"#utility.yul\":2490:2496   */\n      dup2\n        /* \"#utility.yul\":2485:2488   */\n      dup6\n        /* \"#utility.yul\":2409:2497   */\n      tag_157\n      jump\t// in\n    tag_156:\n        /* \"#utility.yul\":2402:2497   */\n      swap4\n      pop\n        /* \"#utility.yul\":2506:2558   */\n      tag_158\n        /* \"#utility.yul\":2551:2557   */\n      dup2\n        /* \"#utility.yul\":2546:2549   */\n      dup6\n        /* \"#utility.yul\":2539:2543   */\n      0x20\n        /* \"#utility.yul\":2532:2537   */\n      dup7\n        /* \"#utility.yul\":2528:2544   */\n      add\n        /* \"#utility.yul\":2506:2558   */\n      tag_159\n      jump\t// in\n    tag_158:\n        /* \"#utility.yul\":2583:2589   */\n      dup1\n        /* \"#utility.yul\":2578:2581   */\n      dup5\n        /* \"#utility.yul\":2574:2590   */\n      add\n        /* \"#utility.yul\":2567:2590   */\n      swap2\n      pop\n        /* \"#utility.yul\":2331:2596   */\n      pop\n      swap3\n      swap2\n      pop\n      pop\n      jump\t// out\n        /* \"#utility.yul\":2602:2968   */\n    tag_160:\n      0x00\n        /* \"#utility.yul\":2765:2832   */\n      tag_162\n        /* \"#utility.yul\":2829:2831   */\n      0x21\n        /* \"#utility.yul\":2824:2827   */\n      dup4\n        /* \"#utility.yul\":2765:2832   */\n      tag_163\n      jump\t// in\n    tag_162:\n        /* \"#utility.yul\":2758:2832   */\n      swap2\n      pop\n        /* \"#utility.yul\":2841:2934   */\n      tag_164\n        /* \"#utility.yul\":2930:2933   */\n      dup3\n        /* \"#utility.yul\":2841:2934   */\n      tag_165\n      jump\t// in\n    tag_164:\n        /* \"#utility.yul\":2959:2961   */\n      0x40\n        /* \"#utility.yul\":2954:2957   */\n      dup3\n        /* \"#utility.yul\":2950:2962   */\n      add\n        /* \"#utility.yul\":2943:2962   */\n      swap1\n      pop\n        /* \"#utility.yul\":2748:2968   */\n      swap2\n      swap1\n      pop\n      jump\t// out\n        /* \"#utility.yul\":2974:3340   */\n    tag_166:\n      0x00\n        /* \"#utility.yul\":3137:3204   */\n      tag_168\n        /* \"#utility.yul\":3201:3203   */\n      0x23\n        /* \"#utility.yul\":3196:3199   */\n      dup4\n        /* \"#utility.yul\":3137:3204   */\n      tag_163\n      jump\t// in\n    tag_168:\n        /* \"#utility.yul\":3130:3204   */\n      swap2\n      pop\n        /* \"#utility.yul\":3213:3306   */\n      tag_169\n        /* \"#utility.yul\":3302:3305   */\n      dup3\n        /* \"#utility.yul\":3213:3306   */\n      tag_170\n      jump\t// in\n    tag_169:\n        /* \"#utility.yul\":3331:3333   */\n      0x40\n        /* \"#utility.yul\":3326:3329   */\n      dup3\n        /* \"#utility.yul\":3322:3334   */\n      add\n        /* \"#utility.yul\":3315:3334   */\n      swap1\n      pop\n        /* \"#utility.yul\":3120:3340   */\n      swap2\n      swap1\n      pop\n      jump\t// out\n        /* \"#utility.yul\":3346:3617   */\n    tag_78:\n      0x00\n        /* \"#utility.yul\":3498:3591   */\n      tag_172\n        /* \"#utility.yul\":3587:3590   */\n      dup3\n        /* \"#utility.yul\":3578:3584   */\n      dup5\n        /* \"#utility.yul\":3498:3591   */\n      tag_152\n      jump\t// in\n    tag_172:\n        /* \"#utility.yul\":3491:3591   */\n      swap2\n      pop\n        /* \"#utility.yul\":3608:3611   */\n      dup2\n        /* \"#utility.yul\":3601:3611   */\n      swap1\n      pop\n        /* \"#utility.yul\":3480:3617   */\n      swap3\n      swap2\n      pop\n      pop\n      jump\t// out\n        /* \"#utility.yul\":3623:3845   */\n    tag_22:\n      0x00\n        /* \"#utility.yul\":3754:3756   */\n      0x20\n        /* \"#utility.yul\":3743:3752   */\n      dup3\n        /* \"#utility.yul\":3739:3757   */\n      add\n        /* \"#utility.yul\":3731:3757   */\n      swap1\n      pop\n        /* \"#utility.yul\":3767:3838   */\n      tag_174\n        /* \"#utility.yul\":3835:3836   */\n      0x00\n        /* \"#utility.yul\":3824:3833   */\n      dup4\n        /* \"#utility.yul\":3820:3837   */\n      add\n        /* \"#utility.yul\":3811:3817   */\n      dup5\n        /* \"#utility.yul\":3767:3838   */\n      tag_144\n      jump\t// in\n    tag_174:\n        /* \"#utility.yul\":3721:3845   */\n      swap3\n      swap2\n      pop\n      pop\n      jump\t// out\n        /* \"#utility.yul\":3851:4183   */\n    tag_100:\n      0x00\n        /* \"#utility.yul\":4010:4012   */\n      0x40\n        /* \"#utility.yul\":3999:4008   */\n      dup3\n        /* \"#utility.yul\":3995:4013   */\n      add\n        /* \"#utility.yul\":3987:4013   */\n      swap1\n      pop\n        /* \"#utility.yul\":4023:4094   */\n      tag_176\n        /* \"#utility.yul\":4091:4092   */\n      0x00\n        /* \"#utility.yul\":4080:4089   */\n      dup4\n        /* \"#utility.yul\":4076:4093   */\n      add\n        /* \"#utility.yul\":4067:4073   */\n      dup6\n        /* \"#utility.yul\":4023:4094   */\n      tag_144\n      jump\t// in\n    tag_176:\n        /* \"#utility.yul\":4104:4176   */\n      tag_177\n        /* \"#utility.yul\":4172:4174   */\n      0x20\n        /* \"#utility.yul\":4161:4170   */\n      dup4\n        /* \"#utility.yul\":4157:4175   */\n      add\n        /* \"#utility.yul\":4148:4154   */\n      dup5\n        /* \"#utility.yul\":4104:4176   */\n      tag_144\n      jump\t// in\n    tag_177:\n        /* \"#utility.yul\":3977:4183   */\n      swap4\n      swap3\n      pop\n      pop\n      pop\n      jump\t// out\n        /* \"#utility.yul\":4189:4399   */\n    tag_45:\n      0x00\n        /* \"#utility.yul\":4314:4316   */\n      0x20\n        /* \"#utility.yul\":4303:4312   */\n      dup3\n        /* \"#utility.yul\":4299:4317   */\n      add\n        /* \"#utility.yul\":4291:4317   */\n      swap1\n      pop\n        /* \"#utility.yul\":4327:4392   */\n      tag_179\n        /* \"#utility.yul\":4389:4390   */\n      0x00\n        /* \"#utility.yul\":4378:4387   */\n      dup4\n        /* \"#utility.yul\":4374:4391   */\n      add\n        /* \"#utility.yul\":4365:4371   */\n      dup5\n        /* \"#utility.yul\":4327:4392   */\n      tag_148\n      jump\t// in\n    tag_179:\n        /* \"#utility.yul\":4281:4399   */\n      swap3\n      swap2\n      pop\n      pop\n      jump\t// out\n        /* \"#utility.yul\":4405:4824   */\n    tag_60:\n      0x00\n        /* \"#utility.yul\":4609:4611   */\n      0x20\n        /* \"#utility.yul\":4598:4607   */\n      dup3\n        /* \"#utility.yul\":4594:4612   */\n      add\n        /* \"#utility.yul\":4586:4612   */\n      swap1\n      pop\n        /* \"#utility.yul\":4658:4667   */\n      dup2\n        /* \"#utility.yul\":4652:4656   */\n      dup2\n        /* \"#utility.yul\":4648:4668   */\n      sub\n        /* \"#utility.yul\":4644:4645   */\n      0x00\n        /* \"#utility.yul\":4633:4642   */\n      dup4\n        /* \"#utility.yul\":4629:4646   */\n      add\n        /* \"#utility.yul\":4622:4669   */\n      mstore\n        /* \"#utility.yul\":4686:4817   */\n      tag_181\n        /* \"#utility.yul\":4812:4816   */\n      dup2\n        /* \"#utility.yul\":4686:4817   */\n      tag_160\n      jump\t// in\n    tag_181:\n        /* \"#utility.yul\":4678:4817   */\n      swap1\n      pop\n        /* \"#utility.yul\":4576:4824   */\n      swap2\n      swap1\n      pop\n      jump\t// out\n        /* \"#utility.yul\":4830:5249   */\n    tag_56:\n      0x00\n        /* \"#utility.yul\":5034:5036   */\n      0x20\n        /* \"#utility.yul\":5023:5032   */\n      dup3\n        /* \"#utility.yul\":5019:5037   */\n      add\n        /* \"#utility.yul\":5011:5037   */\n      swap1\n      pop\n        /* \"#utility.yul\":5083:5092   */\n      dup2\n        /* \"#utility.yul\":5077:5081   */\n      dup2\n        /* \"#utility.yul\":5073:5093   */\n      sub\n        /* \"#utility.yul\":5069:5070   */\n      0x00\n        /* \"#utility.yul\":5058:5067   */\n      dup4\n        /* \"#utility.yul\":5054:5071   */\n      add\n        /* \"#utility.yul\":5047:5094   */\n      mstore\n        /* \"#utility.yul\":5111:5242   */\n      tag_183\n        /* \"#utility.yul\":5237:5241   */\n      dup2\n        /* \"#utility.yul\":5111:5242   */\n      tag_166\n      jump\t// in\n    tag_183:\n        /* \"#utility.yul\":5103:5242   */\n      swap1\n      pop\n        /* \"#utility.yul\":5001:5249   */\n      swap2\n      swap1\n      pop\n      jump\t// out\n        /* \"#utility.yul\":5255:5384   */\n    tag_117:\n      0x00\n        /* \"#utility.yul\":5316:5336   */\n      tag_185\n      tag_186\n      jump\t// in\n    tag_185:\n        /* \"#utility.yul\":5306:5336   */\n      swap1\n      pop\n        /* \"#utility.yul\":5345:5378   */\n      tag_187\n        /* \"#utility.yul\":5373:5377   */\n      dup3\n        /* \"#utility.yul\":5365:5371   */\n      dup3\n        /* \"#utility.yul\":5345:5378   */\n      tag_188\n      jump\t// in\n    tag_187:\n        /* \"#utility.yul\":5296:5384   */\n      swap2\n      swap1\n      pop\n      jump\t// out\n        /* \"#utility.yul\":5390:5465   */\n    tag_186:\n      0x00\n        /* \"#utility.yul\":5456:5458   */\n      0x40\n        /* \"#utility.yul\":5450:5459   */\n      mload\n        /* \"#utility.yul\":5440:5459   */\n      swap1\n      pop\n        /* \"#utility.yul\":5430:5465   */\n      swap1\n      jump\t// out\n        /* \"#utility.yul\":5471:5778   */\n    tag_116:\n      0x00\n        /* \"#utility.yul\":5622:5640   */\n      0xffffffffffffffff\n        /* \"#utility.yul\":5614:5620   */\n      dup3\n        /* \"#utility.yul\":5611:5641   */\n      gt\n        /* \"#utility.yul\":5608:5610   */\n      iszero\n      tag_191\n      jumpi\n        /* \"#utility.yul\":5644:5662   */\n      tag_192\n      tag_193\n      jump\t// in\n    tag_192:\n        /* \"#utility.yul\":5608:5610   */\n    tag_191:\n        /* \"#utility.yul\":5682:5711   */\n      tag_194\n        /* \"#utility.yul\":5704:5710   */\n      dup3\n        /* \"#utility.yul\":5682:5711   */\n      tag_195\n      jump\t// in\n    tag_194:\n        /* \"#utility.yul\":5674:5711   */\n      swap1\n      pop\n        /* \"#utility.yul\":5766:5770   */\n      0x20\n        /* \"#utility.yul\":5760:5764   */\n      dup2\n        /* \"#utility.yul\":5756:5771   */\n      add\n        /* \"#utility.yul\":5748:5771   */\n      swap1\n      pop\n        /* \"#utility.yul\":5537:5778   */\n      swap2\n      swap1\n      pop\n      jump\t// out\n        /* \"#utility.yul\":5784:5882   */\n    tag_155:\n      0x00\n        /* \"#utility.yul\":5869:5874   */\n      dup2\n        /* \"#utility.yul\":5863:5875   */\n      mload\n        /* \"#utility.yul\":5853:5875   */\n      swap1\n      pop\n        /* \"#utility.yul\":5842:5882   */\n      swap2\n      swap1\n      pop\n      jump\t// out\n        /* \"#utility.yul\":5888:6035   */\n    tag_157:\n      0x00\n        /* \"#utility.yul\":6026:6029   */\n      dup2\n        /* \"#utility.yul\":6011:6029   */\n      swap1\n      pop\n        /* \"#utility.yul\":6001:6035   */\n      swap3\n      swap2\n      pop\n      pop\n      jump\t// out\n        /* \"#utility.yul\":6041:6210   */\n    tag_163:\n      0x00\n        /* \"#utility.yul\":6159:6165   */\n      dup3\n        /* \"#utility.yul\":6154:6157   */\n      dup3\n        /* \"#utility.yul\":6147:6166   */\n      mstore\n        /* \"#utility.yul\":6199:6203   */\n      0x20\n        /* \"#utility.yul\":6194:6197   */\n      dup3\n        /* \"#utility.yul\":6190:6204   */\n      add\n        /* \"#utility.yul\":6175:6204   */\n      swap1\n      pop\n        /* \"#utility.yul\":6137:6210   */\n      swap3\n      swap2\n      pop\n      pop\n      jump\t// out\n        /* \"#utility.yul\":6216:6312   */\n    tag_147:\n      0x00\n        /* \"#utility.yul\":6282:6306   */\n      tag_200\n        /* \"#utility.yul\":6300:6305   */\n      dup3\n        /* \"#utility.yul\":6282:6306   */\n      tag_201\n      jump\t// in\n    tag_200:\n        /* \"#utility.yul\":6271:6306   */\n      swap1\n      pop\n        /* \"#utility.yul\":6261:6312   */\n      swap2\n      swap1\n      pop\n      jump\t// out\n        /* \"#utility.yul\":6318:6408   */\n    tag_151:\n      0x00\n        /* \"#utility.yul\":6395:6400   */\n      dup2\n        /* \"#utility.yul\":6388:6401   */\n      iszero\n        /* \"#utility.yul\":6381:6402   */\n      iszero\n        /* \"#utility.yul\":6370:6402   */\n      swap1\n      pop\n        /* \"#utility.yul\":6360:6408   */\n      swap2\n      swap1\n      pop\n      jump\t// out\n        /* \"#utility.yul\":6414:6540   */\n    tag_201:\n      0x00\n        /* \"#utility.yul\":6491:6533   */\n      0xffffffffffffffffffffffffffffffffffffffff\n        /* \"#utility.yul\":6484:6489   */\n      dup3\n        /* \"#utility.yul\":6480:6534   */\n      and\n        /* \"#utility.yul\":6469:6534   */\n      swap1\n      pop\n        /* \"#utility.yul\":6459:6540   */\n      swap2\n      swap1\n      pop\n      jump\t// out\n        /* \"#utility.yul\":6546:6700   */\n    tag_120:\n        /* \"#utility.yul\":6630:6636   */\n      dup3\n        /* \"#utility.yul\":6625:6628   */\n      dup2\n        /* \"#utility.yul\":6620:6623   */\n      dup4\n        /* \"#utility.yul\":6607:6637   */\n      calldatacopy\n        /* \"#utility.yul\":6692:6693   */\n      0x00\n        /* \"#utility.yul\":6683:6689   */\n      dup4\n        /* \"#utility.yul\":6678:6681   */\n      dup4\n        /* \"#utility.yul\":6674:6690   */\n      add\n        /* \"#utility.yul\":6667:6694   */\n      mstore\n        /* \"#utility.yul\":6597:6700   */\n      pop\n      pop\n      pop\n      jump\t// out\n        /* \"#utility.yul\":6706:7013   */\n    tag_159:\n        /* \"#utility.yul\":6774:6775   */\n      0x00\n        /* \"#utility.yul\":6784:6897   */\n    tag_206:\n        /* \"#utility.yul\":6798:6804   */\n      dup4\n        /* \"#utility.yul\":6795:6796   */\n      dup2\n        /* \"#utility.yul\":6792:6805   */\n      lt\n        /* \"#utility.yul\":6784:6897   */\n      iszero\n      tag_208\n      jumpi\n        /* \"#utility.yul\":6883:6884   */\n      dup1\n        /* \"#utility.yul\":6878:6881   */\n      dup3\n        /* \"#utility.yul\":6874:6885   */\n      add\n        /* \"#utility.yul\":6868:6886   */\n      mload\n        /* \"#utility.yul\":6864:6865   */\n      dup2\n        /* \"#utility.yul\":6859:6862   */\n      dup5\n        /* \"#utility.yul\":6855:6866   */\n      add\n        /* \"#utility.yul\":6848:6887   */\n      mstore\n        /* \"#utility.yul\":6820:6822   */\n      0x20\n        /* \"#utility.yul\":6817:6818   */\n      dup2\n        /* \"#utility.yul\":6813:6823   */\n      add\n        /* \"#utility.yul\":6808:6823   */\n      swap1\n      pop\n        /* \"#utility.yul\":6784:6897   */\n      jump(tag_206)\n    tag_208:\n        /* \"#utility.yul\":6915:6921   */\n      dup4\n        /* \"#utility.yul\":6912:6913   */\n      dup2\n        /* \"#utility.yul\":6909:6922   */\n      gt\n        /* \"#utility.yul\":6906:6908   */\n      iszero\n      tag_209\n      jumpi\n        /* \"#utility.yul\":6995:6996   */\n      0x00\n        /* \"#utility.yul\":6986:6992   */\n      dup5\n        /* \"#utility.yul\":6981:6984   */\n      dup5\n        /* \"#utility.yul\":6977:6993   */\n      add\n        /* \"#utility.yul\":6970:6997   */\n      mstore\n        /* \"#utility.yul\":6906:6908   */\n    tag_209:\n        /* \"#utility.yul\":6755:7013   */\n      pop\n      pop\n      pop\n      pop\n      jump\t// out\n        /* \"#utility.yul\":7019:7300   */\n    tag_188:\n        /* \"#utility.yul\":7102:7129   */\n      tag_211\n        /* \"#utility.yul\":7124:7128   */\n      dup3\n        /* \"#utility.yul\":7102:7129   */\n      tag_195\n      jump\t// in\n    tag_211:\n        /* \"#utility.yul\":7094:7100   */\n      dup2\n        /* \"#utility.yul\":7090:7130   */\n      add\n        /* \"#utility.yul\":7232:7238   */\n      dup2\n        /* \"#utility.yul\":7220:7230   */\n      dup2\n        /* \"#utility.yul\":7217:7239   */\n      lt\n        /* \"#utility.yul\":7196:7214   */\n      0xffffffffffffffff\n        /* \"#utility.yul\":7184:7194   */\n      dup3\n        /* \"#utility.yul\":7181:7215   */\n      gt\n        /* \"#utility.yul\":7178:7240   */\n      or\n        /* \"#utility.yul\":7175:7177   */\n      iszero\n      tag_212\n      jumpi\n        /* \"#utility.yul\":7243:7261   */\n      tag_213\n      tag_193\n      jump\t// in\n    tag_213:\n        /* \"#utility.yul\":7175:7177   */\n    tag_212:\n        /* \"#utility.yul\":7283:7293   */\n      dup1\n        /* \"#utility.yul\":7279:7281   */\n      0x40\n        /* \"#utility.yul\":7272:7294   */\n      mstore\n        /* \"#utility.yul\":7062:7300   */\n      pop\n      pop\n      pop\n      jump\t// out\n        /* \"#utility.yul\":7306:7486   */\n    tag_193:\n        /* \"#utility.yul\":7354:7431   */\n      0x4e487b7100000000000000000000000000000000000000000000000000000000\n        /* \"#utility.yul\":7351:7352   */\n      0x00\n        /* \"#utility.yul\":7344:7432   */\n      mstore\n        /* \"#utility.yul\":7451:7455   */\n      0x41\n        /* \"#utility.yul\":7448:7449   */\n      0x04\n        /* \"#utility.yul\":7441:7456   */\n      mstore\n        /* \"#utility.yul\":7475:7479   */\n      0x24\n        /* \"#utility.yul\":7472:7473   */\n      0x00\n        /* \"#utility.yul\":7465:7480   */\n      revert\n        /* \"#utility.yul\":7492:7594   */\n    tag_195:\n      0x00\n        /* \"#utility.yul\":7584:7586   */\n      0x1f\n        /* \"#utility.yul\":7580:7587   */\n      not\n        /* \"#utility.yul\":7575:7577   */\n      0x1f\n        /* \"#utility.yul\":7568:7573   */\n      dup4\n        /* \"#utility.yul\":7564:7578   */\n      add\n        /* \"#utility.yul\":7560:7588   */\n      and\n        /* \"#utility.yul\":7550:7588   */\n      swap1\n      pop\n        /* \"#utility.yul\":7540:7594   */\n      swap2\n      swap1\n      pop\n      jump\t// out\n        /* \"#utility.yul\":7600:7820   */\n    tag_165:\n        /* \"#utility.yul\":7740:7774   */\n      0x4f776e6564557067726164656162696c69747950726f78793a20494e56414c49\n        /* \"#utility.yul\":7736:7737   */\n      0x00\n        /* \"#utility.yul\":7728:7734   */\n      dup3\n        /* \"#utility.yul\":7724:7738   */\n      add\n        /* \"#utility.yul\":7717:7775   */\n      mstore\n        /* \"#utility.yul\":7809:7812   */\n      0x4400000000000000000000000000000000000000000000000000000000000000\n        /* \"#utility.yul\":7804:7806   */\n      0x20\n        /* \"#utility.yul\":7796:7802   */\n      dup3\n        /* \"#utility.yul\":7792:7807   */\n      add\n        /* \"#utility.yul\":7785:7813   */\n      mstore\n        /* \"#utility.yul\":7706:7820   */\n      pop\n      jump\t// out\n        /* \"#utility.yul\":7826:8048   */\n    tag_170:\n        /* \"#utility.yul\":7966:8000   */\n      0x4f776e6564557067726164656162696c69747950726f78793a20464f52424944\n        /* \"#utility.yul\":7962:7963   */\n      0x00\n        /* \"#utility.yul\":7954:7960   */\n      dup3\n        /* \"#utility.yul\":7950:7964   */\n      add\n        /* \"#utility.yul\":7943:8001   */\n      mstore\n        /* \"#utility.yul\":8035:8040   */\n      0x44454e0000000000000000000000000000000000000000000000000000000000\n        /* \"#utility.yul\":8030:8032   */\n      0x20\n        /* \"#utility.yul\":8022:8028   */\n      dup3\n        /* \"#utility.yul\":8018:8033   */\n      add\n        /* \"#utility.yul\":8011:8041   */\n      mstore\n        /* \"#utility.yul\":7932:8048   */\n      pop\n      jump\t// out\n        /* \"#utility.yul\":8054:8176   */\n    tag_124:\n        /* \"#utility.yul\":8127:8151   */\n      tag_219\n        /* \"#utility.yul\":8145:8150   */\n      dup2\n        /* \"#utility.yul\":8127:8151   */\n      tag_147\n      jump\t// in\n    tag_219:\n        /* \"#utility.yul\":8120:8125   */\n      dup2\n        /* \"#utility.yul\":8117:8152   */\n      eq\n        /* \"#utility.yul\":8107:8109   */\n      tag_220\n      jumpi\n        /* \"#utility.yul\":8166:8167   */\n      0x00\n        /* \"#utility.yul\":8163:8164   */\n      dup1\n        /* \"#utility.yul\":8156:8168   */\n      revert\n        /* \"#utility.yul\":8107:8109   */\n    tag_220:\n        /* \"#utility.yul\":8097:8176   */\n      pop\n      jump\t// out\n        /* \"#utility.yul\":8182:8298   */\n    tag_128:\n        /* \"#utility.yul\":8252:8273   */\n      tag_222\n        /* \"#utility.yul\":8267:8272   */\n      dup2\n        /* \"#utility.yul\":8252:8273   */\n      tag_151\n      jump\t// in\n    tag_222:\n        /* \"#utility.yul\":8245:8250   */\n      dup2\n        /* \"#utility.yul\":8242:8274   */\n      eq\n        /* \"#utility.yul\":8232:8234   */\n      tag_223\n      jumpi\n        /* \"#utility.yul\":8288:8289   */\n      0x00\n        /* \"#utility.yul\":8285:8286   */\n      dup1\n        /* \"#utility.yul\":8278:8290   */\n      revert\n        /* \"#utility.yul\":8232:8234   */\n    tag_223:\n        /* \"#utility.yul\":8222:8298   */\n      pop\n      jump\t// out\n\n    auxdata: 0xa2646970667358221220eb18f64d9f56f77c87e889fb46c4f2ba6616adb418242d801f24b2a5c383cc1d64736f6c63430008020033\n}\n",
				"bytecode": {
					"linkReferences": {},
					"object": "608060405234801561001057600080fd5b506100203361002560201b60201c565b610051565b60007f85bd7031deaf76b80f9733e7da132fe310adf86a8e73260691b76988b4b7e35d90508181555050565b610cef806100606000396000f3fe6080604052600436106100745760003560e01c80635c60da1b1161004e5780635c60da1b146100fd578063612f2f37146101285780636c376cc514610151578063f1739cae1461017c57610083565b8063025313a21461008d5780633659cfe6146100b85780634f1ef286146100e157610083565b36610083576100816101a5565b005b61008b6101a5565b005b34801561009957600080fd5b506100a26102cb565b6040516100af91906109e0565b60405180910390f35b3480156100c457600080fd5b506100df60048036038101906100da919061088e565b6102f9565b005b6100fb60048036038101906100f691906108b7565b61037a565b005b34801561010957600080fd5b506101126104ab565b60405161011f91906109e0565b60405180910390f35b34801561013457600080fd5b5061014f600480360381019061014a919061090b565b6104d9565b005b34801561015d57600080fd5b5061016661057a565b6040516101739190610a24565b60405180910390f35b34801561018857600080fd5b506101a3600480360381019061019e919061088e565b6105a8565b005b6101ad61057a565b15610228576101ba6102cb565b73ffffffffffffffffffffffffffffffffffffffff163373ffffffffffffffffffffffffffffffffffffffff1614610227576040517f08c379a000000000000000000000000000000000000000000000000000000000815260040161021e90610a5f565b60405180910390fd5b5b60006102326104ab565b9050600073ffffffffffffffffffffffffffffffffffffffff168173ffffffffffffffffffffffffffffffffffffffff1614156102a4576040517f08c379a000000000000000000000000000000000000000000000000000000000815260040161029b90610a3f565b60405180910390fd5b60405136600082376000803683855af43d806000843e81600081146102c7578184f35b8184fd5b6000807f85bd7031deaf76b80f9733e7da132fe310adf86a8e73260691b76988b4b7e35d9050805491505090565b6103016102cb565b73ffffffffffffffffffffffffffffffffffffffff163373ffffffffffffffffffffffffffffffffffffffff161461036e576040517f08c379a000000000000000000000000000000000000000000000000000000000815260040161036590610a5f565b60405180910390fd5b610377816106d9565b50565b6103826102cb565b73ffffffffffffffffffffffffffffffffffffffff163373ffffffffffffffffffffffffffffffffffffffff16146103ef576040517f08c379a00000000000000000000000000000000000000000000000000000000081526004016103e690610a5f565b60405180910390fd5b6103f8826102f9565b60003073ffffffffffffffffffffffffffffffffffffffff16348360405161042091906109c9565b60006040518083038185875af1925050503d806000811461045d576040519150601f19603f3d011682016040523d82523d6000602084013e610462565b606091505b50509050806104a6576040517f08c379a000000000000000000000000000000000000000000000000000000000815260040161049d90610a3f565b60405180910390fd5b505050565b6000807ff968882b178b4a61d620bde63916829c95f3e1b54eb01ef03837ff1b870f40769050805491505090565b6104e16102cb565b73ffffffffffffffffffffffffffffffffffffffff163373ffffffffffffffffffffffffffffffffffffffff161461054e576040517f08c379a000000000000000000000000000000000000000000000000000000000815260040161054590610a5f565b60405180910390fd5b60007fce60c5db904241f4fe710c6b7d7c2e6f59bb4f2afc9ad1549ac9b29eb7f522b690508181555050565b6000807fce60c5db904241f4fe710c6b7d7c2e6f59bb4f2afc9ad1549ac9b29eb7f522b69050805491505090565b6105b06102cb565b73ffffffffffffffffffffffffffffffffffffffff163373ffffffffffffffffffffffffffffffffffffffff161461061d576040517f08c379a000000000000000000000000000000000000000000000000000000000815260040161061490610a5f565b60405180910390fd5b600073ffffffffffffffffffffffffffffffffffffffff168173ffffffffffffffffffffffffffffffffffffffff16141561068d576040517f08c379a000000000000000000000000000000000000000000000000000000000815260040161068490610a3f565b60405180910390fd5b7f5a3e66efaa1e445ebd894728a69d6959842ea1e97bd79b892797106e270efcd96106b66102cb565b826040516106c59291906109fb565b60405180910390a16106d6816107a4565b50565b60006106e36104ab565b90508173ffffffffffffffffffffffffffffffffffffffff168173ffffffffffffffffffffffffffffffffffffffff161415610754576040517f08c379a000000000000000000000000000000000000000000000000000000000815260040161074b90610a3f565b60405180910390fd5b61075d826107d0565b8173ffffffffffffffffffffffffffffffffffffffff167fbc7cd75a20ee27fd9adebab32041f755214dbc6bffa90cc0225b39da2e5c2d3b60405160405180910390a25050565b60007f85bd7031deaf76b80f9733e7da132fe310adf86a8e73260691b76988b4b7e35d90508181555050565b60007ff968882b178b4a61d620bde63916829c95f3e1b54eb01ef03837ff1b870f407690508181555050565b600061080f61080a84610aa4565b610a7f565b90508281526020810184848401111561082757600080fd5b610832848285610b3a565b509392505050565b60008135905061084981610c8b565b92915050565b60008135905061085e81610ca2565b92915050565b600082601f83011261087557600080fd5b81356108858482602086016107fc565b91505092915050565b6000602082840312156108a057600080fd5b60006108ae8482850161083a565b91505092915050565b600080604083850312156108ca57600080fd5b60006108d88582860161083a565b925050602083013567ffffffffffffffff8111156108f557600080fd5b61090185828601610864565b9150509250929050565b60006020828403121561091d57600080fd5b600061092b8482850161084f565b91505092915050565b61093d81610afc565b82525050565b61094c81610b0e565b82525050565b600061095d82610ad5565b6109678185610ae0565b9350610977818560208601610b49565b80840191505092915050565b6000610990602183610aeb565b915061099b82610bed565b604082019050919050565b60006109b3602383610aeb565b91506109be82610c3c565b604082019050919050565b60006109d58284610952565b915081905092915050565b60006020820190506109f56000830184610934565b92915050565b6000604082019050610a106000830185610934565b610a1d6020830184610934565b9392505050565b6000602082019050610a396000830184610943565b92915050565b60006020820190508181036000830152610a5881610983565b9050919050565b60006020820190508181036000830152610a78816109a6565b9050919050565b6000610a89610a9a565b9050610a958282610b7c565b919050565b6000604051905090565b600067ffffffffffffffff821115610abf57610abe610bad565b5b610ac882610bdc565b9050602081019050919050565b600081519050919050565b600081905092915050565b600082825260208201905092915050565b6000610b0782610b1a565b9050919050565b60008115159050919050565b600073ffffffffffffffffffffffffffffffffffffffff82169050919050565b82818337600083830152505050565b60005b83811015610b67578082015181840152602081019050610b4c565b83811115610b76576000848401525b50505050565b610b8582610bdc565b810181811067ffffffffffffffff82111715610ba457610ba3610bad565b5b80604052505050565b7f4e487b7100000000000000000000000000000000000000000000000000000000600052604160045260246000fd5b6000601f19601f8301169050919050565b7f4f776e6564557067726164656162696c69747950726f78793a20494e56414c4960008201527f4400000000000000000000000000000000000000000000000000000000000000602082015250565b7f4f776e6564557067726164656162696c69747950726f78793a20464f5242494460008201527f44454e0000000000000000000000000000000000000000000000000000000000602082015250565b610c9481610afc565b8114610c9f57600080fd5b50565b610cab81610b0e565b8114610cb657600080fd5b5056fea2646970667358221220eb18f64d9f56f77c87e889fb46c4f2ba6616adb418242d801f24b2a5c383cc1d64736f6c63430008020033",
					"opcodes": "PUSH1 0x80 PUSH1 0x40 MSTORE CALLVALUE DUP1 ISZERO PUSH2 0x10 JUMPI PUSH1 0x0 DUP1 REVERT JUMPDEST POP PUSH2 0x20 CALLER PUSH2 0x25 PUSH1 0x20 SHL PUSH1 0x20 SHR JUMP JUMPDEST PUSH2 0x51 JUMP JUMPDEST PUSH1 0x0 PUSH32 0x85BD7031DEAF76B80F9733E7DA132FE310ADF86A8E73260691B76988B4B7E35D SWAP1 POP DUP2 DUP2 SSTORE POP POP JUMP JUMPDEST PUSH2 0xCEF DUP1 PUSH2 0x60 PUSH1 0x0 CODECOPY PUSH1 0x0 RETURN INVALID PUSH1 0x80 PUSH1 0x40 MSTORE PUSH1 0x4 CALLDATASIZE LT PUSH2 0x74 JUMPI PUSH1 0x0 CALLDATALOAD PUSH1 0xE0 SHR DUP1 PUSH4 0x5C60DA1B GT PUSH2 0x4E JUMPI DUP1 PUSH4 0x5C60DA1B EQ PUSH2 0xFD JUMPI DUP1 PUSH4 0x612F2F37 EQ PUSH2 0x128 JUMPI DUP1 PUSH4 0x6C376CC5 EQ PUSH2 0x151 JUMPI DUP1 PUSH4 0xF1739CAE EQ PUSH2 0x17C JUMPI PUSH2 0x83 JUMP JUMPDEST DUP1 PUSH4 0x25313A2 EQ PUSH2 0x8D JUMPI DUP1 PUSH4 0x3659CFE6 EQ PUSH2 0xB8 JUMPI DUP1 PUSH4 0x4F1EF286 EQ PUSH2 0xE1 JUMPI PUSH2 0x83 JUMP JUMPDEST CALLDATASIZE PUSH2 0x83 JUMPI PUSH2 0x81 PUSH2 0x1A5 JUMP JUMPDEST STOP JUMPDEST PUSH2 0x8B PUSH2 0x1A5 JUMP JUMPDEST STOP JUMPDEST CALLVALUE DUP1 ISZERO PUSH2 0x99 JUMPI PUSH1 0x0 DUP1 REVERT JUMPDEST POP PUSH2 0xA2 PUSH2 0x2CB JUMP JUMPDEST PUSH1 0x40 MLOAD PUSH2 0xAF SWAP2 SWAP1 PUSH2 0x9E0 JUMP JUMPDEST PUSH1 0x40 MLOAD DUP1 SWAP2 SUB SWAP1 RETURN JUMPDEST CALLVALUE DUP1 ISZERO PUSH2 0xC4 JUMPI PUSH1 0x0 DUP1 REVERT JUMPDEST POP PUSH2 0xDF PUSH1 0x4 DUP1 CALLDATASIZE SUB DUP2 ADD SWAP1 PUSH2 0xDA SWAP2 SWAP1 PUSH2 0x88E JUMP JUMPDEST PUSH2 0x2F9 JUMP JUMPDEST STOP JUMPDEST PUSH2 0xFB PUSH1 0x4 DUP1 CALLDATASIZE SUB DUP2 ADD SWAP1 PUSH2 0xF6 SWAP2 SWAP1 PUSH2 0x8B7 JUMP JUMPDEST PUSH2 0x37A JUMP JUMPDEST STOP JUMPDEST CALLVALUE DUP1 ISZERO PUSH2 0x109 JUMPI PUSH1 0x0 DUP1 REVERT JUMPDEST POP PUSH2 0x112 PUSH2 0x4AB JUMP JUMPDEST PUSH1 0x40 MLOAD PUSH2 0x11F SWAP2 SWAP1 PUSH2 0x9E0 JUMP JUMPDEST PUSH1 0x40 MLOAD DUP1 SWAP2 SUB SWAP1 RETURN JUMPDEST CALLVALUE DUP1 ISZERO PUSH2 0x134 JUMPI PUSH1 0x0 DUP1 REVERT JUMPDEST POP PUSH2 0x14F PUSH1 0x4 DUP1 CALLDATASIZE SUB DUP2 ADD SWAP1 PUSH2 0x14A SWAP2 SWAP1 PUSH2 0x90B JUMP JUMPDEST PUSH2 0x4D9 JUMP JUMPDEST STOP JUMPDEST CALLVALUE DUP1 ISZERO PUSH2 0x15D JUMPI PUSH1 0x0 DUP1 REVERT JUMPDEST POP PUSH2 0x166 PUSH2 0x57A JUMP JUMPDEST PUSH1 0x40 MLOAD PUSH2 0x173 SWAP2 SWAP1 PUSH2 0xA24 JUMP JUMPDEST PUSH1 0x40 MLOAD DUP1 SWAP2 SUB SWAP1 RETURN JUMPDEST CALLVALUE DUP1 ISZERO PUSH2 0x188 JUMPI PUSH1 0x0 DUP1 REVERT JUMPDEST POP PUSH2 0x1A3 PUSH1 0x4 DUP1 CALLDATASIZE SUB DUP2 ADD SWAP1 PUSH2 0x19E SWAP2 SWAP1 PUSH2 0x88E JUMP JUMPDEST PUSH2 0x5A8 JUMP JUMPDEST STOP JUMPDEST PUSH2 0x1AD PUSH2 0x57A JUMP JUMPDEST ISZERO PUSH2 0x228 JUMPI PUSH2 0x1BA PUSH2 0x2CB JUMP JUMPDEST PUSH20 0xFFFFFFFFFFFFFFFFFFFFFFFFFFFFFFFFFFFFFFFF AND CALLER PUSH20 0xFFFFFFFFFFFFFFFFFFFFFFFFFFFFFFFFFFFFFFFF AND EQ PUSH2 0x227 JUMPI PUSH1 0x40 MLOAD PUSH32 0x8C379A000000000000000000000000000000000000000000000000000000000 DUP2 MSTORE PUSH1 0x4 ADD PUSH2 0x21E SWAP1 PUSH2 0xA5F JUMP JUMPDEST PUSH1 0x40 MLOAD DUP1 SWAP2 SUB SWAP1 REVERT JUMPDEST JUMPDEST PUSH1 0x0 PUSH2 0x232 PUSH2 0x4AB JUMP JUMPDEST SWAP1 POP PUSH1 0x0 PUSH20 0xFFFFFFFFFFFFFFFFFFFFFFFFFFFFFFFFFFFFFFFF AND DUP2 PUSH20 0xFFFFFFFFFFFFFFFFFFFFFFFFFFFFFFFFFFFFFFFF AND EQ ISZERO PUSH2 0x2A4 JUMPI PUSH1 0x40 MLOAD PUSH32 0x8C379A000000000000000000000000000000000000000000000000000000000 DUP2 MSTORE PUSH1 0x4 ADD PUSH2 0x29B SWAP1 PUSH2 0xA3F JUMP JUMPDEST PUSH1 0x40 MLOAD DUP1 SWAP2 SUB SWAP1 REVERT JUMPDEST PUSH1 0x40 MLOAD CALLDATASIZE PUSH1 0x0 DUP3 CALLDATACOPY PUSH1 0x0 DUP1 CALLDATASIZE DUP4 DUP6 GAS DELEGATECALL RETURNDATASIZE DUP1 PUSH1 0x0 DUP5 RETURNDATACOPY DUP2 PUSH1 0x0 DUP2 EQ PUSH2 0x2C7 JUMPI DUP2 DUP5 RETURN JUMPDEST DUP2 DUP5 REVERT JUMPDEST PUSH1 0x0 DUP1 PUSH32 0x85BD7031DEAF76B80F9733E7DA132FE310ADF86A8E73260691B76988B4B7E35D SWAP1 POP DUP1 SLOAD SWAP2 POP POP SWAP1 JUMP JUMPDEST PUSH2 0x301 PUSH2 0x2CB JUMP JUMPDEST PUSH20 0xFFFFFFFFFFFFFFFFFFFFFFFFFFFFFFFFFFFFFFFF AND CALLER PUSH20 0xFFFFFFFFFFFFFFFFFFFFFFFFFFFFFFFFFFFFFFFF AND EQ PUSH2 0x36E JUMPI PUSH1 0x40 MLOAD PUSH32 0x8C379A000000000000000000000000000000000000000000000000000000000 DUP2 MSTORE PUSH1 0x4 ADD PUSH2 0x365 SWAP1 PUSH2 0xA5F JUMP JUMPDEST PUSH1 0x40 MLOAD DUP1 SWAP2 SUB SWAP1 REVERT JUMPDEST PUSH2 0x377 DUP2 PUSH2 0x6D9 JUMP JUMPDEST POP JUMP JUMPDEST PUSH2 0x382 PUSH2 0x2CB JUMP JUMPDEST PUSH20 0xFFFFFFFFFFFFFFFFFFFFFFFFFFFFFFFFFFFFFFFF AND CALLER PUSH20 0xFFFFFFFFFFFFFFFFFFFFFFFFFFFFFFFFFFFFFFFF AND EQ PUSH2 0x3EF JUMPI PUSH1 0x40 MLOAD PUSH32 0x8C379A000000000000000000000000000000000000000000000000000000000 DUP2 MSTORE PUSH1 0x4 ADD PUSH2 0x3E6 SWAP1 PUSH2 0xA5F JUMP JUMPDEST PUSH1 0x40 MLOAD DUP1 SWAP2 SUB SWAP1 REVERT JUMPDEST PUSH2 0x3F8 DUP3 PUSH2 0x2F9 JUMP JUMPDEST PUSH1 0x0 ADDRESS PUSH20 0xFFFFFFFFFFFFFFFFFFFFFFFFFFFFFFFFFFFFFFFF AND CALLVALUE DUP4 PUSH1 0x40 MLOAD PUSH2 0x420 SWAP2 SWAP1 PUSH2 0x9C9 JUMP JUMPDEST PUSH1 0x0 PUSH1 0x40 MLOAD DUP1 DUP4 SUB DUP2 DUP6 DUP8 GAS CALL SWAP3 POP POP POP RETURNDATASIZE DUP1 PUSH1 0x0 DUP2 EQ PUSH2 0x45D JUMPI PUSH1 0x40 MLOAD SWAP2 POP PUSH1 0x1F NOT PUSH1 0x3F RETURNDATASIZE ADD AND DUP3 ADD PUSH1 0x40 MSTORE RETURNDATASIZE DUP3 MSTORE RETURNDATASIZE PUSH1 0x0 PUSH1 0x20 DUP5 ADD RETURNDATACOPY PUSH2 0x462 JUMP JUMPDEST PUSH1 0x60 SWAP2 POP JUMPDEST POP POP SWAP1 POP DUP1 PUSH2 0x4A6 JUMPI PUSH1 0x40 MLOAD PUSH32 0x8C379A000000000000000000000000000000000000000000000000000000000 DUP2 MSTORE PUSH1 0x4 ADD PUSH2 0x49D SWAP1 PUSH2 0xA3F JUMP JUMPDEST PUSH1 0x40 MLOAD DUP1 SWAP2 SUB SWAP1 REVERT JUMPDEST POP POP POP JUMP JUMPDEST PUSH1 0x0 DUP1 PUSH32 0xF968882B178B4A61D620BDE63916829C95F3E1B54EB01EF03837FF1B870F4076 SWAP1 POP DUP1 SLOAD SWAP2 POP POP SWAP1 JUMP JUMPDEST PUSH2 0x4E1 PUSH2 0x2CB JUMP JUMPDEST PUSH20 0xFFFFFFFFFFFFFFFFFFFFFFFFFFFFFFFFFFFFFFFF AND CALLER PUSH20 0xFFFFFFFFFFFFFFFFFFFFFFFFFFFFFFFFFFFFFFFF AND EQ PUSH2 0x54E JUMPI PUSH1 0x40 MLOAD PUSH32 0x8C379A000000000000000000000000000000000000000000000000000000000 DUP2 MSTORE PUSH1 0x4 ADD PUSH2 0x545 SWAP1 PUSH2 0xA5F JUMP JUMPDEST PUSH1 0x40 MLOAD DUP1 SWAP2 SUB SWAP1 REVERT JUMPDEST PUSH1 0x0 PUSH32 0xCE60C5DB904241F4FE710C6B7D7C2E6F59BB4F2AFC9AD1549AC9B29EB7F522B6 SWAP1 POP DUP2 DUP2 SSTORE POP POP JUMP JUMPDEST PUSH1 0x0 DUP1 PUSH32 0xCE60C5DB904241F4FE710C6B7D7C2E6F59BB4F2AFC9AD1549AC9B29EB7F522B6 SWAP1 POP DUP1 SLOAD SWAP2 POP POP SWAP1 JUMP JUMPDEST PUSH2 0x5B0 PUSH2 0x2CB JUMP JUMPDEST PUSH20 0xFFFFFFFFFFFFFFFFFFFFFFFFFFFFFFFFFFFFFFFF AND CALLER PUSH20 0xFFFFFFFFFFFFFFFFFFFFFFFFFFFFFFFFFFFFFFFF AND EQ PUSH2 0x61D JUMPI PUSH1 0x40 MLOAD PUSH32 0x8C379A000000000000000000000000000000000000000000000000000000000 DUP2 MSTORE PUSH1 0x4 ADD PUSH2 0x614 SWAP1 PUSH2 0xA5F JUMP JUMPDEST PUSH1 0x40 MLOAD DUP1 SWAP2 SUB SWAP1 REVERT JUMPDEST PUSH1 0x0 PUSH20 0xFFFFFFFFFFFFFFFFFFFFFFFFFFFFFFFFFFFFFFFF AND DUP2 PUSH20 0xFFFFFFFFFFFFFFFFFFFFFFFFFFFFFFFFFFFFFFFF AND EQ ISZERO PUSH2 0x68D JUMPI PUSH1 0x40 MLOAD PUSH32 0x8C379A000000000000000000000000000000000000000000000000000000000 DUP2 MSTORE PUSH1 0x4 ADD PUSH2 0x684 SWAP1 PUSH2 0xA3F JUMP JUMPDEST PUSH1 0x40 MLOAD DUP1 SWAP2 SUB SWAP1 REVERT JUMPDEST PUSH32 0x5A3E66EFAA1E445EBD894728A69D6959842EA1E97BD79B892797106E270EFCD9 PUSH2 0x6B6 PUSH2 0x2CB JUMP JUMPDEST DUP3 PUSH1 0x40 MLOAD PUSH2 0x6C5 SWAP3 SWAP2 SWAP1 PUSH2 0x9FB JUMP JUMPDEST PUSH1 0x40 MLOAD DUP1 SWAP2 SUB SWAP1 LOG1 PUSH2 0x6D6 DUP2 PUSH2 0x7A4 JUMP JUMPDEST POP JUMP JUMPDEST PUSH1 0x0 PUSH2 0x6E3 PUSH2 0x4AB JUMP JUMPDEST SWAP1 POP DUP2 PUSH20 0xFFFFFFFFFFFFFFFFFFFFFFFFFFFFFFFFFFFFFFFF AND DUP2 PUSH20 0xFFFFFFFFFFFFFFFFFFFFFFFFFFFFFFFFFFFFFFFF AND EQ ISZERO PUSH2 0x754 JUMPI PUSH1 0x40 MLOAD PUSH32 0x8C379A000000000000000000000000000000000000000000000000000000000 DUP2 MSTORE PUSH1 0x4 ADD PUSH2 0x74B SWAP1 PUSH2 0xA3F JUMP JUMPDEST PUSH1 0x40 MLOAD DUP1 SWAP2 SUB SWAP1 REVERT JUMPDEST PUSH2 0x75D DUP3 PUSH2 0x7D0 JUMP JUMPDEST DUP2 PUSH20 0xFFFFFFFFFFFFFFFFFFFFFFFFFFFFFFFFFFFFFFFF AND PUSH32 0xBC7CD75A20EE27FD9ADEBAB32041F755214DBC6BFFA90CC0225B39DA2E5C2D3B PUSH1 0x40 MLOAD PUSH1 0x40 MLOAD DUP1 SWAP2 SUB SWAP1 LOG2 POP POP JUMP JUMPDEST PUSH1 0x0 PUSH32 0x85BD7031DEAF76B80F9733E7DA132FE310ADF86A8E73260691B76988B4B7E35D SWAP1 POP DUP2 DUP2 SSTORE POP POP JUMP JUMPDEST PUSH1 0x0 PUSH32 0xF968882B178B4A61D620BDE63916829C95F3E1B54EB01EF03837FF1B870F4076 SWAP1 POP DUP2 DUP2 SSTORE POP POP JUMP JUMPDEST PUSH1 0x0 PUSH2 0x80F PUSH2 0x80A DUP5 PUSH2 0xAA4 JUMP JUMPDEST PUSH2 0xA7F JUMP JUMPDEST SWAP1 POP DUP3 DUP2 MSTORE PUSH1 0x20 DUP2 ADD DUP5 DUP5 DUP5 ADD GT ISZERO PUSH2 0x827 JUMPI PUSH1 0x0 DUP1 REVERT JUMPDEST PUSH2 0x832 DUP5 DUP3 DUP6 PUSH2 0xB3A JUMP JUMPDEST POP SWAP4 SWAP3 POP POP POP JUMP JUMPDEST PUSH1 0x0 DUP2 CALLDATALOAD SWAP1 POP PUSH2 0x849 DUP2 PUSH2 0xC8B JUMP JUMPDEST SWAP3 SWAP2 POP POP JUMP JUMPDEST PUSH1 0x0 DUP2 CALLDATALOAD SWAP1 POP PUSH2 0x85E DUP2 PUSH2 0xCA2 JUMP JUMPDEST SWAP3 SWAP2 POP POP JUMP JUMPDEST PUSH1 0x0 DUP3 PUSH1 0x1F DUP4 ADD SLT PUSH2 0x875 JUMPI PUSH1 0x0 DUP1 REVERT JUMPDEST DUP2 CALLDATALOAD PUSH2 0x885 DUP5 DUP3 PUSH1 0x20 DUP7 ADD PUSH2 0x7FC JUMP JUMPDEST SWAP2 POP POP SWAP3 SWAP2 POP POP JUMP JUMPDEST PUSH1 0x0 PUSH1 0x20 DUP3 DUP5 SUB SLT ISZERO PUSH2 0x8A0 JUMPI PUSH1 0x0 DUP1 REVERT JUMPDEST PUSH1 0x0 PUSH2 0x8AE DUP5 DUP3 DUP6 ADD PUSH2 0x83A JUMP JUMPDEST SWAP2 POP POP SWAP3 SWAP2 POP POP JUMP JUMPDEST PUSH1 0x0 DUP1 PUSH1 0x40 DUP4 DUP6 SUB SLT ISZERO PUSH2 0x8CA JUMPI PUSH1 0x0 DUP1 REVERT JUMPDEST PUSH1 0x0 PUSH2 0x8D8 DUP6 DUP3 DUP7 ADD PUSH2 0x83A JUMP JUMPDEST SWAP3 POP POP PUSH1 0x20 DUP4 ADD CALLDATALOAD PUSH8 0xFFFFFFFFFFFFFFFF DUP2 GT ISZERO PUSH2 0x8F5 JUMPI PUSH1 0x0 DUP1 REVERT JUMPDEST PUSH2 0x901 DUP6 DUP3 DUP7 ADD PUSH2 0x864 JUMP JUMPDEST SWAP2 POP POP SWAP3 POP SWAP3 SWAP1 POP JUMP JUMPDEST PUSH1 0x0 PUSH1 0x20 DUP3 DUP5 SUB SLT ISZERO PUSH2 0x91D JUMPI PUSH1 0x0 DUP1 REVERT JUMPDEST PUSH1 0x0 PUSH2 0x92B DUP5 DUP3 DUP6 ADD PUSH2 0x84F JUMP JUMPDEST SWAP2 POP POP SWAP3 SWAP2 POP POP JUMP JUMPDEST PUSH2 0x93D DUP2 PUSH2 0xAFC JUMP JUMPDEST DUP3 MSTORE POP POP JUMP JUMPDEST PUSH2 0x94C DUP2 PUSH2 0xB0E JUMP JUMPDEST DUP3 MSTORE POP POP JUMP JUMPDEST PUSH1 0x0 PUSH2 0x95D DUP3 PUSH2 0xAD5 JUMP JUMPDEST PUSH2 0x967 DUP2 DUP6 PUSH2 0xAE0 JUMP JUMPDEST SWAP4 POP PUSH2 0x977 DUP2 DUP6 PUSH1 0x20 DUP7 ADD PUSH2 0xB49 JUMP JUMPDEST DUP1 DUP5 ADD SWAP2 POP POP SWAP3 SWAP2 POP POP JUMP JUMPDEST PUSH1 0x0 PUSH2 0x990 PUSH1 0x21 DUP4 PUSH2 0xAEB JUMP JUMPDEST SWAP2 POP PUSH2 0x99B DUP3 PUSH2 0xBED JUMP JUMPDEST PUSH1 0x40 DUP3 ADD SWAP1 POP SWAP2 SWAP1 POP JUMP JUMPDEST PUSH1 0x0 PUSH2 0x9B3 PUSH1 0x23 DUP4 PUSH2 0xAEB JUMP JUMPDEST SWAP2 POP PUSH2 0x9BE DUP3 PUSH2 0xC3C JUMP JUMPDEST PUSH1 0x40 DUP3 ADD SWAP1 POP SWAP2 SWAP1 POP JUMP JUMPDEST PUSH1 0x0 PUSH2 0x9D5 DUP3 DUP5 PUSH2 0x952 JUMP JUMPDEST SWAP2 POP DUP2 SWAP1 POP SWAP3 SWAP2 POP POP JUMP JUMPDEST PUSH1 0x0 PUSH1 0x20 DUP3 ADD SWAP1 POP PUSH2 0x9F5 PUSH1 0x0 DUP4 ADD DUP5 PUSH2 0x934 JUMP JUMPDEST SWAP3 SWAP2 POP POP JUMP JUMPDEST PUSH1 0x0 PUSH1 0x40 DUP3 ADD SWAP1 POP PUSH2 0xA10 PUSH1 0x0 DUP4 ADD DUP6 PUSH2 0x934 JUMP JUMPDEST PUSH2 0xA1D PUSH1 0x20 DUP4 ADD DUP5 PUSH2 0x934 JUMP JUMPDEST SWAP4 SWAP3 POP POP POP JUMP JUMPDEST PUSH1 0x0 PUSH1 0x20 DUP3 ADD SWAP1 POP PUSH2 0xA39 PUSH1 0x0 DUP4 ADD DUP5 PUSH2 0x943 JUMP JUMPDEST SWAP3 SWAP2 POP POP JUMP JUMPDEST PUSH1 0x0 PUSH1 0x20 DUP3 ADD SWAP1 POP DUP2 DUP2 SUB PUSH1 0x0 DUP4 ADD MSTORE PUSH2 0xA58 DUP2 PUSH2 0x983 JUMP JUMPDEST SWAP1 POP SWAP2 SWAP1 POP JUMP JUMPDEST PUSH1 0x0 PUSH1 0x20 DUP3 ADD SWAP1 POP DUP2 DUP2 SUB PUSH1 0x0 DUP4 ADD MSTORE PUSH2 0xA78 DUP2 PUSH2 0x9A6 JUMP JUMPDEST SWAP1 POP SWAP2 SWAP1 POP JUMP JUMPDEST PUSH1 0x0 PUSH2 0xA89 PUSH2 0xA9A JUMP JUMPDEST SWAP1 POP PUSH2 0xA95 DUP3 DUP3 PUSH2 0xB7C JUMP JUMPDEST SWAP2 SWAP1 POP JUMP JUMPDEST PUSH1 0x0 PUSH1 0x40 MLOAD SWAP1 POP SWAP1 JUMP JUMPDEST PUSH1 0x0 PUSH8 0xFFFFFFFFFFFFFFFF DUP3 GT ISZERO PUSH2 0xABF JUMPI PUSH2 0xABE PUSH2 0xBAD JUMP JUMPDEST JUMPDEST PUSH2 0xAC8 DUP3 PUSH2 0xBDC JUMP JUMPDEST SWAP1 POP PUSH1 0x20 DUP2 ADD SWAP1 POP SWAP2 SWAP1 POP JUMP JUMPDEST PUSH1 0x0 DUP2 MLOAD SWAP1 POP SWAP2 SWAP1 POP JUMP JUMPDEST PUSH1 0x0 DUP2 SWAP1 POP SWAP3 SWAP2 POP POP JUMP JUMPDEST PUSH1 0x0 DUP3 DUP3 MSTORE PUSH1 0x20 DUP3 ADD SWAP1 POP SWAP3 SWAP2 POP POP JUMP JUMPDEST PUSH1 0x0 PUSH2 0xB07 DUP3 PUSH2 0xB1A JUMP JUMPDEST SWAP1 POP SWAP2 SWAP1 POP JUMP JUMPDEST PUSH1 0x0 DUP2 ISZERO ISZERO SWAP1 POP SWAP2 SWAP1 POP JUMP JUMPDEST PUSH1 0x0 PUSH20 0xFFFFFFFFFFFFFFFFFFFFFFFFFFFFFFFFFFFFFFFF DUP3 AND SWAP1 POP SWAP2 SWAP1 POP JUMP JUMPDEST DUP3 DUP2 DUP4 CALLDATACOPY PUSH1 0x0 DUP4 DUP4 ADD MSTORE POP POP POP JUMP JUMPDEST PUSH1 0x0 JUMPDEST DUP4 DUP2 LT ISZERO PUSH2 0xB67 JUMPI DUP1 DUP3 ADD MLOAD DUP2 DUP5 ADD MSTORE PUSH1 0x20 DUP2 ADD SWAP1 POP PUSH2 0xB4C JUMP JUMPDEST DUP4 DUP2 GT ISZERO PUSH2 0xB76 JUMPI PUSH1 0x0 DUP5 DUP5 ADD MSTORE JUMPDEST POP POP POP POP JUMP JUMPDEST PUSH2 0xB85 DUP3 PUSH2 0xBDC JUMP JUMPDEST DUP2 ADD DUP2 DUP2 LT PUSH8 0xFFFFFFFFFFFFFFFF DUP3 GT OR ISZERO PUSH2 0xBA4 JUMPI PUSH2 0xBA3 PUSH2 0xBAD JUMP JUMPDEST JUMPDEST DUP1 PUSH1 0x40 MSTORE POP POP POP JUMP JUMPDEST PUSH32 0x4E487B7100000000000000000000000000000000000000000000000000000000 PUSH1 0x0 MSTORE PUSH1 0x41 PUSH1 0x4 MSTORE PUSH1 0x24 PUSH1 0x0 REVERT JUMPDEST PUSH1 0x0 PUSH1 0x1F NOT PUSH1 0x1F DUP4 ADD AND SWAP1 POP SWAP2 SWAP1 POP JUMP JUMPDEST PUSH32 0x4F776E6564557067726164656162696C69747950726F78793A20494E56414C49 PUSH1 0x0 DUP3 ADD MSTORE PUSH32 0x4400000000000000000000000000000000000000000000000000000000000000 PUSH1 0x20 DUP3 ADD MSTORE POP JUMP JUMPDEST PUSH32 0x4F776E6564557067726164656162696C69747950726F78793A20464F52424944 PUSH1 0x0 DUP3 ADD MSTORE PUSH32 0x44454E0000000000000000000000000000000000000000000000000000000000 PUSH1 0x20 DUP3 ADD MSTORE POP JUMP JUMPDEST PUSH2 0xC94 DUP2 PUSH2 0xAFC JUMP JUMPDEST DUP2 EQ PUSH2 0xC9F JUMPI PUSH1 0x0 DUP1 REVERT JUMPDEST POP JUMP JUMPDEST PUSH2 0xCAB DUP2 PUSH2 0xB0E JUMP JUMPDEST DUP2 EQ PUSH2 0xCB6 JUMPI PUSH1 0x0 DUP1 REVERT JUMPDEST POP JUMP INVALID LOG2 PUSH5 0x6970667358 0x22 SLT KECCAK256 0xEB XOR 0xF6 0x4D SWAP16 JUMP 0xF7 PUSH29 0x87E889FB46C4F2BA6616ADB418242D801F24B2A5C383CC1D64736F6C63 NUMBER STOP ADDMOD MUL STOP CALLER "
				},
				"gasEstimates": {
					"creation": {
						"codeDepositCost": "662200",
						"executionCost": "infinite",
						"totalCost": "infinite"
					},
					"external": {
						"": "infinite",
						"implementation()": "1199",
						"maintenance()": "1200",
						"proxyOwner()": "1200",
						"setMaintenance(bool)": "21335",
						"transferProxyOwnership(address)": "infinite",
						"upgradeTo(address)": "23497",
						"upgradeToAndCall(address,bytes)": "infinite"
					},
					"internal": {
						"_fallback()": "infinite",
						"_upgradeTo(address)": "infinite",
						"setImplementation(address)": "20030",
						"setUpgradeabilityOwner(address)": "20030"
					}
				},
				"methodIdentifiers": {
					"implementation()": "5c60da1b",
					"maintenance()": "6c376cc5",
					"proxyOwner()": "025313a2",
					"setMaintenance(bool)": "612f2f37",
					"transferProxyOwnership(address)": "f1739cae",
					"upgradeTo(address)": "3659cfe6",
					"upgradeToAndCall(address,bytes)": "4f1ef286"
				}
			},
			"storageLayout": {
				"storage": [],
				"types": null
			},
			"userdoc": {
				"kind": "user",
				"methods": {},
				"version": 1
			}
		}
	}
}